:100000000C9438000C9455000C9455000C94550039
:100010000C9455000C9455000C9455000C943F041E
:100020000C9455000C9455000C9455000C945500FC
:100030000C9455000C9455000C9455000C945500EC
:100040000C9455000C9455000C9455000C945500DC
:100050000C9455000C9455000C945500B000D2003F
:10006000E200170142016F01A401DC01F001280246
:1000700011241FBECFEFD4E0DEBFCDBF11E0A0E062
:10008000B1E0EAEDF9E002C005900D92A430B107AD
:10009000D9F723E0A4E0B1E001C01D92AF32B2076E
:1000A000E1F70E9417030C94EB040C940000E1E6C6
:1000B000F0E080E88083108280EC8093E40087E3A6
:1000C0008093E50087E08093E6008FE08093E7006F
:1000D0000895EF92FF920F931F93CF93DF93E82F32
:1000E000DB0177230CF41196B595A79561707078B4
:1000F000772334F4615071096E6F7F6F6F5F7F4FAC
:10010000660F771F660F771FAD0144515F4FEA01FD
:10011000888120EF30E0062E02C0359527950A949D
:10012000E2F7822388837D01D1EFED0EF11CE70118
:100130008881822388832596888182238883A5509D
:10014000BF4F8C9128232C930E2F10E0F801F097CD
:10015000EA30F10508F0AEC1E25DFF4F0C94820475
:10016000FA01108181E090E09C01062E02C0220F6E
:10017000331F0A94E2F7312F320F3083F7013081B9
:100180006E5F7F4F02C0880F991F6A95E2F7822B3E
:10019000932F980F90839881890F88838C91280FD3
:1001A0002C9388C1D7012C9181E090E002C0880F88
:1001B000991F6A95E2F7922F980F9C939881890F67
:1001C000888378C1FA01108181E090E09C01062EBD
:1001D00002C0220F331F0A94E2F7312F320F30830F
:1001E000F7013081320F30833881AB014F5F5F4FB1
:1001F000FC01042E02C0EE0FFF1F0A94E2F74F5FCE
:100200005F4F8C0102C0000F111F4A95E2F7A80151
:100210004E2B6D5F7F4F02C0880F991F6A95E2F7E2
:10022000842B830F88838C91280F2C9343C1FA0170
:10023000108181E090E09C01062E02C0220F331F46
:100240000A94E2F7312F320F3083F7013081320FF9
:1002500030833881AB014F5F5F4F8C0102C0000FCC
:10026000111F4A95E2F76D5F7F4F02C0880F991FFB
:100270006A95E2F7802B822B830F88838C91280F5D
:100280002C9318C1D7014C9181E090E09C01062E7F
:1002900002C0220F331F0A94E2F7FB0132968C0151
:1002A00002C0000F111FEA95E2F7322F302B340FF6
:1002B0003C933881AB014F5F5F4FDC0102C0AA0F56
:1002C000BB1F4A95E2F76D5F7F4F02C0880F991FF1
:1002D0006A95E2F78A2B822B830F8883EBC0FA01A1
:1002E000108181E090E09C01062E02C0220F331F96
:1002F0000A94E2F7312F320F3083F7013081AB01DE
:100300004E5F5F4F8C0102C0000F111F4A95E2F74C
:10031000A801430F40833881AB014F5F5F4FFC0161
:1003200002C0EE0FFF1F4A95E2F76D5F7F4F02C0DC
:10033000880F991F6A95E2F78E2B822B830F888393
:100340008C91280F2C93B6C0FA01208181E090E0B7
:100350008C01062E02C0000F111F0A94E2F7200F35
:100360002083F70140819B012E5F3F4FFC0102C0BB
:10037000EE0FFF1F2A95E2F79F01342F320FF7018E
:1003800030833881AB014F5F5F4FFC0102C0EE0F3D
:10039000FF1F4A95E2F72E2B202B6D5F7F4F02C087
:1003A000880F991F6A95E2F7822B830F88838C91BF
:1003B000E02FE80FEC937EC0DA012C9181E090E011
:1003C00002C0880F991F6A95E2F7922F980F9C93AD
:1003D000F7019081980F90839881890F88836AC074
:1003E000FA01108181E090E09C01062E02C0220FEC
:1003F000331F0A94E2F7312F320F3083F701308137
:10040000AB014E5F5F4F8C0102C0000F111F4A9578
:10041000E2F7402F422B340F30833881AB014F5F1E
:100420005F4FFC0102C0EE0FFF1F4A95E2F7AF01DC
:10043000402B422B6D5F7F4F02C0880F991F6A953A
:10044000E2F7842B830F88838C91280F2C9332C082
:10045000DA01EC9181E090E09C01062E02C0220FAF
:10046000331F0A94E2F73E2F320F3C93F70140818D
:10047000FB0132968C0102C0000F111FEA95E2F7D2
:10048000322F302B340FD7013C933881AB014F5FB3
:100490005F4FFC0102C0EE0FFF1F4A95E2F76D5F50
:1004A0007F4F02C0880F991F6A95E2F78E2B822B2F
:1004B000830F8883DF91CF911F910F91FF90EF9071
:1004C0000895CF92DF92EF92FF92CF93DF936B016B
:1004D0007C0182E0C816D104E104F104A4F183E0B8
:1004E000C816D104E104F10484F1D701C60181707A
:1004F0009927AA27B078BB2354F40197A109B10921
:100500008E6F9F6FAF6FBF6F0196A11DB11D892BBD
:100510008A2B8B2BE1F0C2E0D0E008C0C701B60106
:100520000E946304672B682B692B99F021969E012A
:100530000D2E000C440B550B2C153D054E055F058B
:100540006CF381E007C080E005C081E003C080E07B
:1005500001C080E0DF91CF91FF90EF90DF90CF90CE
:1005600008958F929F92AF92BF92CF92DF92EF92B7
:10057000FF92CF93DF934B015C01EA018AE091E0A7
:100580000E941604D0930901C0930801C501B4016B
:1005900024E630E040E050E00E9463040F2EFAE0D1
:1005A000CF2ED12CE12CF12CF02DA70196010E9429
:1005B0006304BE0180E3820F0E946900C0910801BC
:1005C000D09109012196D0930901C0930801C5017A
:1005D000B401A70196010E946304862FBE01805DCD
:1005E0000E9469008AE091E00E943004DF91CF917F
:1005F000FF90EF90DF90CF90BF90AF909F908F9043
:100600000895EC01C12CD12C7601C394C701B60129
:100610000E946102882329F0AE01C701B6010E9441
:10062000B1028FEFC81AD80AE80AF80AEFCF0E9481
:10063000570060E070E081E093E00E945A0383E09D
:1006400090E00E940103DC0115961C921E92149703
:10065000DB01ED91FC911197309721F48D939C93E0
:100660000895F9012481358121153105D1F795834C
:1006700084830895CF93DF9300D0CDB7DEB79A83FC
:100680008983809100019091010106960E94AA043D
:10069000892B59F489819A819093010180930001FB
:1006A00061E070E006960E94CA040F900F90DF91FF
:1006B000CF910895CF93DF9300D0CDB7DEB7F894F4
:1006C0002091040130910501232BC9F528EE31E07A
:1006D0003093800120937F0125E532E03093ED01D6
:1006E0002093EC0122EC32E030935A02209359021D
:1006F0001092C7021092C60225B1205825B92FE0EA
:1007000024B9000020E820936C002DBB22E0209348
:100710006F0020EC209380002DE0209381002DE0DD
:1007200033E0309389002093880010928500109266
:10073000840021E030E030930501209304012091F2
:100740000201309103013A832983232BA9F0E98127
:10075000FA814481558150930301409302019183B2
:1007600080837383628315821482CF0106960E9470
:10077000AA04019749F501C0FFCF7894A091000128
:10078000B0910101ED91FC91119712968D919C9180
:1007900013970995F89462E071E0809100019091BF
:1007A00001010E94230380910601909107010097A7
:1007B00051F0FC012481358130930701209306011B
:1007C0000E943A0301C0FFCFE981FA813696898100
:1007D0009A8187599F4F918B808B938B828B66E098
:1007E00071E089819A810E94230378940F900F9081
:1007F000DF91CF910895F89466E071E08091000157
:10080000909101010E9423038091060190910701BC
:10081000009759F0FC012481358130930701209322
:1008200006010E943A0378940895FFCFF894FC01E2
:1008300020813181232B69F0209100013091010149
:100840003383228380910601909107010E943A032D
:1008500005C021E030E0FC013183208378940895C5
:10086000FC01F89482819381009729F0138212820F
:100870000E943A0302C011821082789408951F9258
:100880000F920FB60F9211242F933F934F935F93C4
:100890006F937F938F939F93AF93BF93EF93FF9348
:1008A0000E94FB03FF91EF91BF91AF919F918F91B8
:1008B0007F916F915F914F913F912F910F900FBE5C
:1008C0000F901F901895052E97FB1EF400940E9420
:1008D0007A0457FD07D00E94880407FC03D04EF429
:1008E0000C947A0450954095309521953F4F4F4F89
:1008F0005F4F089590958095709561957F4F8F4FCC
:100900009F4F0895EE0FFF1F0590F491E02D09947D
:10091000A1E21A2EAA1BBB1BFD010DC0AA1FBB1F03
:10092000EE1FFF1FA217B307E407F50720F0A21B75
:10093000B30BE40BF50B661F771F881F991F1A94E2
:1009400069F760957095809590959B01AC01BD010C
:10095000CF010895DC012D923D924D925D926D92F2
:100960007D928D929D92AD92BD92CD92DD92ED924F
:10097000FD920D931D93CD93DD93FF91EF918DB774
:100980008D938EB78D938FB78D93ED93FD938827BD
:1009900099270994DC01CB0181309105811D2D90AF
:1009A0003D904D905D906D907D908D909D90AD901F
:1009B000BD90CD90DD90ED90FD900D911D91CD916C
:1009C000DD91ED91FD910D90F894FEBF0FBEEDBF4E
:0A09D000ED91FD910994F894FFCF1A
:0409DA000E017B018E
:00000001FF
