S00C00004C6162312E73726563D8
S11300000C942E000C9438000C9438000C94380096
S11300100C9438000C9438000C9438000C9438007C
S11300200C9438000C9438000C9438000C9438006C
S11300300C9438000C9438000C9438000C9438005C
S11300400C9438000C9438000C9438000C9438004C
S11300500C9438000C9438000C94380011241FBE02
S1130060CFEFD4E0DEBFCDBF0E943A000C947F00F6
S11300700C940000E1E6F0E080E8808310820E94A6
S113008046000E94530080E090E0089580EC809345
S1130090E40087E38093E50087E08093E6008FE047
S11300A08093E700089584E08093810024E08091A8
S11300B08400909185008F3F9F4380F0809184005D
S11300C0909185008E3F9F4748F42093EC008091E7
S11300D08400909185008F3F9F4380F78091840036
S11300E0909185008D3F9F4B38F0809184009091D2
S11300F085008C3F9F4F48F31092EC00D8CFF894C2
S1050100FFCF2B
S9030000FC
