S00C00004C6162312E73726563D8
S11300000C9438000C9455000C9455000C94550035
S11300100C9455000C9455000C9455000C94550008
S11300200C9455000C9455000C9455000C945500F8
S11300300C9455000C9455000C9455000C945500E8
S11300400C9455000C9455000C9455000C945500D8
S11300500C9455000C9455000C9455001901390169
S1130060480175019A01BC01E3011902DE009D00FB
S113007011241FBECFEFD4E0DEBFCDBF11E0A0E05E
S1130080B1E0E2EDF6E002C005900D92A230B107B6
S1130090D9F721E0A2E0B1E001C01D92A830B20777
S11300A0E1F70E9457000C9467030C94000088EA5F
S11300B091E60E942C0280E090E00895EF92FF9276
S11300C00F931F93CF93DF93E82FDB0177FD74C069
S11300D0B595A7956170707877FD67C0660F771F37
S11300E0660F771FAD0144515F4FEA01888120EF0D
S11300F030E0062E02C0359527950A94E2F7822354
S113010088837D01D1EFED0EF11CE7018881822304
S113011088832596888182238883A550BF4F8C913C
S113012028232C930E2F10E0F801F097EA30F10504
S1130130A8F5E25DFF4F0C943F03DA01EC9181E0F6
S113014090E09C01062E01C0220F0A94EAF73E2F8C
S1130150320F3C93F7014081FB0132968C0102C0BF
S1130160000F111FEA95E2F7322F302B340FD7011D
S11301703C933881AB014F5F5F4FFC0102C0EE0F2F
S1130180FF1F4A95E2F7AF016D5F7F4F01C0880FF3
S11301906A95EAF7842B822B830F8883DF91CF91B2
S11301A01F910F91FF90EF900895615071096E6F48
S11301B07F6F6F5F7F4F92CF11968ACFFA011081C4
S11301C081E090E09C01062E01C0220F0A94EAF718
S11301D0312F320F3083F7013081AB014E5F5F4F17
S11301E08C0101C0000F4A95EAF7402F422B340FCF
S11301F030833881AB014F5F5F4FFC0102C0EE0FCB
S1130200FF1F4A95E2F7AF01402B422B6D5F7F4FF2
S113021001C0880F6A95EAF7842B830F88838C9139
S1130220280F2C93DF91CF911F910F91FF90EF90A6
S11302300895FA01108181E090E09C01062E01C02E
S1130240220F0A94EAF7312F320F3083F7013081FD
S11302506E5F7F4F01C0880F6A95EAF7822B932F58
S1130260980F90839881890F88838C91280F2C9301
S113027095CFD7012C9181E090E001C0880F6A9559
S1130280EAF7922F980F9C939881890F888386CFE1
S1130290FA01108181E090E09C01062E01C0220F3A
S11302A00A94EAF7312F320F3083F7013081320F8D
S11302B030833881AB014F5F5F4FFC01042E01C0D6
S11302C0EE0F0A94EAF74F5F5F4F8C0102C0000FF4
S11302D0111F4A95E2F7A8014E2B6D5F7F4F01C0B5
S11302E0880F6A95EAF7842B98CFFA01108181E090
S11302F090E09C01062E01C0220F0A94EAF7312FE8
S1130300320F3083F7013081320F30833881AB01F3
S11303104F5F5F4F8C0102C0000F111F4A95E2F737
S1130320A8016D5F7F4F01C0880F6A95EAF7842B9F
S1130330822B73CFD7014C9181E090E09C01062E73
S113034001C0220F0A94EAF7FB0132968C0102C025
S1130350000F111FEA95E2F7322F302B340F3C9334
S11303603881AB014F5F5F4FDC0102C0AA0FBB1F96
S11303704A95E2F7AD0108CFFA01108181E090E0DF
S11303809C01062E01C0220F0A94EAF7312F320F86
S11303903083F7013081AB014E5F5F4F8C0102C0A7
S11303A0000F111F4A95E2F7A801430F40833881DB
S11303B0AB014F5F5F4FFC0102C0EE0FFF1F4A9578
S11303C0E2F7AF01AECFFA01208181E090E08C0129
S11303D0062E01C0000F0A94EAF7200F2083F701CC
S11303E040819B012E5F3F4FFC0102C0EE0FFF1FB7
S11303F02A95E2F79F01342F320FF70130833881B9
S1130400AB014F5F5F4FFC0102C0EE0FFF1F4A9527
S1130410E2F72E2B202B6D5F7F4F01C0880F6A956A
S1130420EAF7822B830F88838C91E02FE80FEC93FB
S1130430B5CEDA012C9181E090E001C0880F6A9575
S1130440EAF7922F980F9C93F7019081980F90836D
S11304509881890F8883A2CE2C0180E88093610063
S11304601092610080EC8093E40087E38093E500C0
S113047087E08093E6002FE02093E70084E08093F8
S1130480810095B1905895B924B90000052C000C51
S113049066087708052C000C6608770805C05FEF2E
S11304A0451A550A650A750A42E044165104610466
S11304B07104ACF352E04516510461047104E1F097
S11304C040FEEDCF83E0C82ED12CE12CF12C0DC0E1
S11304D08FEFC81AD80AE80AF80AC301B2010E94C9
S11304E02003672B682B692BD1F29601A7014C14CA
S11304F05D046E047F0461F773016201C4E0D0E01F
S113050009C08E01B50180E20E945E0021970F3F71
S11305101F4F19F15E019FEFA91AB90AC114D10442
S1130520E104F10471F3C701B6012AE030E040E0D0
S113053050E00E942003922E832E342E252E862FE7
S11305408E01B501805D0E945E00C92CD82CE32C7D
S1130550F22C21970F3F1F4FE9F65FEF451A550A1A
S1130560650A750A9091EC0080910001880F880F4C
S1130570892B8093EC002091840030918500809138
S11305800401909105012817390739F58091060176
S1130590909107010196909307018093060187705B
S11305A099274FEF5FE1849F9001859F300D949FC1
S11305B0300D112430930501209304019091EC0037
S11305C080910001880F880F892B8093EC00809123
S11305D0000151E08527809300012091ED00909166
S11305E002019F5F41E050E002C0440F551F9A95FD
S11305F0E2F7CA01822B8093ED0083B181111CC004
S113060080910301882309F445CF1092030180915E
S1130610020191E08927809302012091ED008F5F10
S113062041E050E002C0440F551F8A95E2F7CA0129
S1130630822B8093ED002ECF51E0509303012ACFFB
S1130640052E97FB1EF400940E94370357FD07D034
S11306500E94450307FC03D04EF40C9437035095D5
S11306604095309521953F4F4F4F5F4F089590959A
S11306708095709561957F4F8F4F9F4F0895EE0F32
S1130680FF1F0590F491E02D0994A1E21A2EAA1BF4
S1130690BB1BFD010DC0AA1FBB1FEE1FFF1FA2172E
S11306A0B307E407F50720F0A21BB30BE40BF50B2B
S11306B0661F771F881F991F1A9469F760957095B4
S11306C0809590959B01AC01BD01CF010895F894EC
S10506D0FFCF56
S10506D2010021
S9030000FC
