:100000000C942E000C944B000C944B000C944B0061
:100010000C944B000C944B000C944B000C944B0034
:100020000C944B000C944B000C944B000C944B0024
:100030000C944B000C944B000C944B000C944B0014
:100040000C944B000C944B000C944B000C944B0004
:100050000C944B000C944B000C944B0011241FBECD
:10006000CFEFD4E0DEBFCDBF11E0A0E0B1E0E4EF20
:10007000F0E002C005900D92A030B107D9F721E061
:10008000A0E0B1E001C01D92A030B207E1F70E94EC
:100090004D000C9478000C9400000E9454000E94C3
:1000A000660080E090E00895E1E6F0E080E880837B
:1000B000108280EC8093E40087E38093E50087E082
:1000C0008093E6008FE08093E700089583E08093BB
:1000D000810020E031E08091840090918500892B9F
:1000E000D1F7822F880F880F8093EC002327F3CF5E
:0400F000F894FFCFB2
:00000001FF
