:100000000C942E000C9438000C9438000C9438009A
:100010000C9438000C9438000C9438000C94380080
:100020000C9438000C9438000C9438000C94380070
:100030000C9438000C9438000C9438000C94380060
:100040000C9438000C9438000C9438000C94380050
:100050000C9438000C9438000C94380011241FBE06
:10006000CFEFD4E0DEBFCDBF0E943A000C947B00FE
:100070000C940000E1E6F0E080E8808310820E94AA
:1000800046000E94530080E090E0089580EC809349
:10009000E40087E38093E50087E08093E6008FE04B
:1000A0008093E700089584E08093810020E030E0B1
:1000B00040E050E060E0EFEFFFE174E08091840009
:1000C0009091850028173907C9F74F5F5F4FCA0124
:1000D000877099278E9F90018F9F300D9E9F300DC6
:1000E0001124662321F07093EC0060E0E7CF1092BA
:0A00F000EC0061E0E3CFF894FFCFCD
:00000001FF
