:100000000C942E000C9438000C9438000C9438009A
:100010000C9438000C9438000C9438000C94380080
:100020000C9438000C9438000C9438000C94380070
:100030000C9438000C9438000C9438000C94380060
:100040000C9438000C9438000C9438000C94380050
:100050000C9438000C9438000C94380011241FBE06
:10006000CFEFD4E0DEBFCDBF0E943A000C94720007
:100070000C9400000E9441000E94530080E090E038
:100080000895E1E6F0E080E88083108280EC8093C0
:10009000E40087E38093E50087E08093E6008FE04B
:1000A0008093E700089585B1805885B98FE084B9C1
:1000B000000081E08093ED0020E031E041E050E07D
:1000C00090E001C091E083B18111FCCF9923C1F38D
:1000D0002327CA01022E01C0880F0A94EAF78093F1
:0800E000ED00EECFF894FFCF14
:00000001FF
