S00C00004C6162312E73726563D8
S11300000C9438000C9455000C9455000C94550035
S11300100C9455000C9455000C9455000C94550008
S11300200C9455000C9455000C9455000C945500F8
S11300300C9455000C9455000C9455000C945500E8
S11300400C9455000C9455000C9455000C945500D8
S11300500C9455000C9455000C9455001401340173
S113006043016B018A01B701DE0114029F00E20023
S113007011241FBECFEFD4E0DEBFCDBF11E0A0E05E
S1130080B1E0E4EBF6E002C005900D92A230B107B6
S1130090D9F721E0A2E0B1E001C01D92A830B20777
S11300A0E1F70E9457000C9458030C94000068E890
S11300B073E180E090E00E94270280E090E00895E0
S11300C0EF92FF920F931F93CF93DF93E82FDB01FF
S11300D077FD76C0B595A7956170707877FD69C096
S11300E0660F771F660F771FAD0144515F4FEA011A
S11300F0888120EF30E0062E02C0359527950A94BA
S1130100E2F7822388837D01D1EFED0EF11CE70134
S11301108881822388832596888182238883A550B9
S1130120BF4F8C9128232C930E2F10E0F801F097E9
S1130130EA30F105B8F5E25DFF4F0C943003FA01A3
S1130140108181E090E09C01062E01C0220F0A94E8
S1130150EAF7312F322B3083F7013081AB014E5F48
S11301605F4F8C0102C0000F111F4A95E2F7A801EE
S1130170302B322B30833881FB0131968C0102C045
S1130180000F111FEA95E2F7432B422B402B6D5FC2
S11301907F4F01C0880F6A95EAF7842B88838C917E
S11301A0282B2C93DF91CF911F910F91FF90EF900B
S11301B00895615071096E6F7F6F6F5F7F4F90CFAD
S11301C0119688CFDA01EC9181E090E09C01062E33
S11301D001C0220F0A94EAF73E2F322B3C93F70119
S11301E03081AB014E5F5F4F8C0102C0000F111FC5
S11301F04A95E2F7A801432B422B40833881AB0197
S11302004F5F5F4FDC0102C0AA0FBB1F4A95E2F7A4
S1130210AD01432B242B6D5F7F4F01C0880F6A957E
S1130220EAF7822B8883BECFFA01108181E090E047
S11302309C01062E01C0220F0A94EAF7312F322BBB
S11302403083F70130816E5F7F4F01C0880F6A955C
S1130250EAF7822B932F982B90839881892B88839C
S11302608C91282B2C939ECFD7012C9181E090E088
S113027001C0880F6A95EAF7922F982B9C93988176
S1130280892B88838FCFFA01108181E090E09C0153
S1130290062E01C0220F0A94EAF7312F322B308345
S11302A0F7013081322B30833881AB014F5F5F4FD0
S11302B08C0102C0000F111F4A95E2F7302BAB01ED
S11302C04E5F5F4FFC0102C0EE0FFF1F4A95E2F73D
S11302D0AF01432B5CCFFA01108181E090E09C01D7
S11302E0062E01C0220F0A94EAF7312F322B3083F5
S11302F0F7013081322B30833881AB014F5F5F4F80
S11303008C0102C0000F111F4A95E2F7A801432B8C
S1130310422B3DCFD701EC9181E090E0AC01062E59
S113032001C0440F0A94EAF79B012E5F3F4F8C01F2
S113033002C0000F111F2A95E2F798012E2B242BDF
S11303402C9358819B012F5F3F4FDC0102C0AA0F01
S1130350BB1F2A95E2F79D01252B422B6D5F7F4F32
S113036001C0880F6A95EAF7842B88831BCFFA01B2
S1130370108181E090E09C01062E01C0220F0A94B6
S1130380EAF7312F322B3083F7013081AB014E5F16
S11303905F4F8C0102C0000F111F4A95E2F7A801BC
S11303A0432B40833881AB014F5F5F4FFC0102C098
S11303B0EE0FFF1F4A95E2F7AF01A9CFFA012081A2
S11303C081E090E08C01062E01C0000F0A94EAF748
S11303D0202B2083F70140819B012E5F3F4FFC01BE
S11303E002C0EE0FFF1F2A95E2F79F01342F322B34
S11303F0F70130833881AB014F5F5F4FFC0102C0CE
S1130400EE0FFF1F4A95E2F7232B202B2E2B6D5F57
S11304107F4F01C0880F6A95EAF7822B88838C91FD
S1130420E02FE82BEC93BECEDA012C9181E090E032
S113043001C0880F6A95EAF7922F982B9C93F701D5
S11304409081982B90839881892B8883ABCE2B0144
S11304503C0180E8809361001092610080EC8093FD
S1130460E40087E38093E50087E08093E6008FE073
S11304708093E70094E0909381002F9A84B9000060
S113048005C08FEF481A580A680A780A42E04416F1
S1130490510461047104ACF352E045165104610443
S11304A07104E1F040FEEDCF83E0C82ED12CE12CA5
S11304B0F12C0DC08FEFC81AD80AE80AF80AC30154
S11304C0B2010E941103672B682B692BD1F29601AC
S11304D0A701C414D504E604F70461F773016201AB
S11304E0C4E0D0E009C08E01B50180E20E94600042
S11304F021970F3F1F4F19F15E019FEFA91AB90A07
S1130500C114D104E104F10471F3C701B6012AE076
S113051030E040E050E00E941103922E832E342EEE
S1130520252E862F8E01B501805D0E946000C92CA6
S1130530D82CE32CF22C21970F3F1F4FE9F65FEFE5
S1130540451A550A650A750A2091ED009091020139
S11305509F5F41E050E002C0440F551F9A95E2F7B7
S1130560CA01822B8093ED0083B1811156C0809122
S113057003018823B1F0109203018091020191E0FC
S11305808927809302012091ED008F5F41E050E0C4
S113059002C0440F551F8A95E2F7CA01822B80934B
S11305A0ED009091EC0080910001880F880F892B59
S11305B08093EC0020910401309105018091840026
S11305C09091850082179307C9F780910601909155
S11305D00701019690930701809306018370992780
S11305E04FEF5FE3849F9001859F300D949F300D02
S11305F0112430930501209304019091EC00809123
S11306000001880F880F892B8093EC0080910001F2
S113061051E085278093000139CF51E050930301C5
S1130620C0CF052E97FB1EF400940E94280357FDAB
S113063007D00E94360307FC03D04EF40C94280321
S113064050954095309521953F4F4F4F5F4F0895FA
S113065090958095709561957F4F8F4F9F4F08952A
S1130660EE0FFF1F0590F491E02D0994A1E21A2EDC
S1130670AA1BBB1BFD010DC0AA1FBB1FEE1FFF1F42
S1130680A217B307E407F50720F0A21BB30BE40B92
S1130690F50B661F771F881F991F1A9469F76095D9
S11306A07095809590959B01AC01BD01CF01089593
S10706B0F894FFCFE8
S10506B401003F
S9030000FC
