:100000000C9438000C9455000C9455000C94420448
:100010000C9455000C9455000C9455000C94F80366
:100020000C9455000C9455000C9455000C945500FC
:100030000C9455000C9455000C9455000C945500EC
:100040000C9455000C9455000C9455000C945500DC
:100050000C9455000C9455000C945500120132017B
:1000600041016E019301B501DC011202D700960037
:1000700011241FBECFEFD4E0DEBFCDBF11E0A0E062
:10008000B1E0ECE2FAE002C005900D92A430B107B5
:10009000D9F723E0A4E0B1E001C01D92A133B2077B
:1000A000E1F70E94B7020C9414050C940000EF9243
:1000B000FF920F931F93CF93DF93E82FDB0177FD20
:1000C00074C0B595A7956170707877FD67C0660FAD
:1000D000771F660F771FAD0144515F4FEA0188819A
:1000E00020EF30E0062E02C0359527950A94E2F7FE
:1000F000822388837D01D1EFED0EF11CE701888119
:10010000822388832596888182238883A550BF4FC8
:100110008C9128232C930E2F10E0F801F097EA30F1
:10012000F105A8F5E25DFF4F0C94AB04DA01EC9108
:1001300081E090E09C01062E01C0220F0A94EAF7AC
:100140003E2F320F3C93F7014081FB0132968C0128
:1001500002C0000F111FEA95E2F7322F302B340F47
:10016000D7013C933881AB014F5F5F4FFC0102C068
:10017000EE0FFF1F4A95E2F7AF016D5F7F4F01C0A1
:10018000880F6A95EAF7842B822B830F8883DF918F
:10019000CF911F910F91FF90EF90089561507109D9
:1001A0006E6F7F6F6F5F7F4F92CF11968ACFFA018C
:1001B000108181E090E09C01062E01C0220F0A947C
:1001C000EAF7312F320F3083F7013081AB014E5FF8
:1001D0005F4F8C0101C0000F4A95EAF7402F422B78
:1001E000340F30833881AB014F5F5F4FFC0102C099
:1001F000EE0FFF1F4A95E2F7AF01402B422B6D5FD8
:100200007F4F01C0880F6A95EAF7842B830F88839C
:100210008C91280F2C93DF91CF911F910F91FF901C
:10022000EF900895FA01108181E090E09C01062E84
:1002300001C0220F0A94EAF7312F320F3083F70101
:1002400030816E5F7F4F01C0880F6A95EAF7822B7D
:10025000932F980F90839881890F88838C91280F12
:100260002C9395CFD7012C9181E090E001C0880FAD
:100270006A95EAF7922F980F9C939881890F88834B
:1002800086CFFA01108181E090E09C01062E01C02A
:10029000220F0A94EAF7312F320F3083F7013081B1
:1002A000320F30833881AB014F5F5F4FFC01042E6A
:1002B00001C0EE0F0A94EAF74F5F5F4F8C0102C056
:1002C000000F111F4A95E2F7A8014E2B6D5F7F4F7B
:1002D00001C0880F6A95EAF7842B98CFFA01108144
:1002E00081E090E09C01062E01C0220F0A94EAF7FB
:1002F000312F320F3083F7013081320F3083388154
:10030000AB014F5F5F4F8C0102C0000F111F4A9578
:10031000E2F7A8016D5F7F4F01C0880F6A95EAF789
:10032000842B822B73CFD7014C9181E090E09C010C
:10033000062E01C0220F0A94EAF7FB0132968C01C7
:1003400002C0000F111FEA95E2F7322F302B340F55
:100350003C933881AB014F5F5F4FDC0102C0AA0FB5
:10036000BB1F4A95E2F7AD0108CFFA01108181E089
:1003700090E09C01062E01C0220F0A94EAF7312F6B
:10038000320F3083F7013081AB014E5F5F4F8C013C
:1003900002C0000F111F4A95E2F7A801430F4083E6
:1003A0003881AB014F5F5F4FFC0102C0EE0FFF1FB2
:1003B0004A95E2F7AF01AECFFA01208181E090E0EB
:1003C0008C01062E01C0000F0A94EAF7200F20834B
:1003D000F70140819B012E5F3F4FFC0102C0EE0FF1
:1003E000FF1F2A95E2F79F01342F320FF701308368
:1003F0003881AB014F5F5F4FFC0102C0EE0FFF1F62
:100400004A95E2F72E2B202B6D5F7F4F01C0880F9E
:100410006A95EAF7822B830F88838C91E02FE80F8F
:10042000EC93B5CEDA012C9181E090E001C0880F09
:100430006A95EAF7922F980F9C93F7019081980F95
:1004400090839881890F8883A2CE8F929F92AF92DA
:10045000BF92CF92DF92EF92FF92CF93DF934B0147
:100460005C01EA0124E630E040E050E00E948C04A8
:100470002AE0C22ED12CE12CF12CA70196010E947A
:100480008C04BE0180E3820F0E9457002196C501B3
:10049000B401A70196010E948C04862FBE01805DE5
:1004A000DF91CF91FF90EF90DF90CF90BF90AF9012
:1004B0009F908F900C9457008C01C0E0D1E06C2F7E
:1004C00070E080E090E0A8010E94250288E091E0C1
:1004D0000E94BF03CD27F3CF5C0110E0C0E0C12C28
:1004E000D12C7601D1E0A501C701B6010E942502F9
:1004F0008CE091E00E94BF03C11105C01D27C12EF1
:10050000D12CE12CF12CCD27EECFEC01C12CD12C3C
:100510007601C3948FEFC81AD80AE80AF80A82E075
:10052000C816D104E104F104E1F0C0FEF3CF83E08A
:10053000882E912CA12CB12C9401A5018C149D0422
:10054000AE04BF0474F48FEF881A980AA80AB80A98
:10055000C701B6010E948C04672B682B692B61F7D9
:10056000D9CFAE01C701B6010E942502D3CF88E0E2
:1005700091E00E94BF038CE091E00E94BF0360E025
:1005800070E08CE692E00E94EF0262E070E08CE5A1
:1005900092E00E94EF0284E090E00E948502CF93F7
:1005A000DF9300D0CDB7DEB79A83898380910001B5
:1005B0009091010106960E94D304892B29F00F9097
:1005C0000F90DF91CF91089589819A8190930101D5
:1005D0008093000161E070E006960E94F304CF93DF
:1005E000DF9300D0CDB7DEB7F894209104013091AD
:1005F0000501232B09F441C0209102013091030130
:100600003A832983232B09F488C0E981FA81448144
:10061000558150930301409302019183808373833A
:10062000628315821482CF0106960E94D30401973B
:1006300009F474C0E981FA81369689819A818759D3
:100640009F4F918B808B938B828BE981FA811582EE
:1006500014828091060190910701009721F0E981B1
:10066000FA8195838483F0930701E09306017894DF
:100670000F900F90DF91CF9108952AEE31E03093E3
:1006800082012093810127E532E03093EF0120932E
:10069000EE0124EC32E030935C0220935B02109276
:1006A000C9021092C802E1E6F0E020E8208310823F
:1006B00040EC4093E40037E33093E50037E03093BB
:1006C000E6005FE05093E70035B1305835B954B9D2
:1006D000000020936C002DBB22E020936F0040931C
:1006E000800023E0209381002AE136E030938900E6
:1006F00020938800109285001092840021E030E061
:1007000030930501209304012091020130910301EF
:100710003A832983232B09F078CFFFCF7894A091D7
:100720000001B0910101ED91FC91119712968D910C
:100730009C9113970995F894E0910001F0910101C3
:10074000158214828091020190910301009711F0AB
:1007500095838483F0930301E09302018091060165
:1007600090910701009751F0FC012481358130936D
:100770000701209306010E94CF025CCFFFCFDC016E
:10078000F8948D919C911197892BD1F08091000163
:100790009091010113969C938E931297809106017C
:1007A00090910701009759F0FC0124813581309325
:1007B0000701209306010E94CF0278940895FFCF8D
:1007C000E0910001F09101011582148280910601EF
:1007D00090910701009711F095838483F0930701AE
:1007E000E093060181E090E08D939C9378940895C6
:1007F0001F920F920FB60F9211242F933F934F9396
:100800005F936F937F938F939F93AF93BF93EF9378
:10081000FF93F894F894E0910A01F0910B0130975E
:1008200071F0158214828091060190910701009762
:1008300011F095838483F0930701E0930601789487
:1008400080910601909107010097D9F0FC01248165
:10085000358130930701209306010E94CF027894DE
:10086000FF91EF91BF91AF919F918F917F916F9188
:100870005F914F913F912F910F900FBE0F901F905E
:100880001895FFCF1F920F920FB60F9211242F933E
:100890003F934F935F936F937F938F939F93AF9308
:1008A000BF93EF93FF93F894F894E0910E01F091C9
:1008B0000F01309771F0158214828091060190919A
:1008C0000701009711F095838483F0930701E0936B
:1008D0000601789480910601909107010097D9F064
:1008E000FC012481358130930701209306010E9489
:1008F000CF027894FF91EF91BF91AF919F918F912B
:100900007F916F915F914F913F912F910F900FBE0B
:100910000F901F901895FFCF052E97FB1EF40094A3
:100920000E94A30457FD07D00E94B10407FC03D026
:100930004EF40C94A30450954095309521953F4F6B
:100940004F4F5F4F089590958095709561957F4FBB
:100950008F4F9F4F0895EE0FFF1F0590F491E02DEC
:100960000994A1E21A2EAA1BBB1BFD010DC0AA1FF0
:10097000BB1FEE1FFF1FA217B307E407F50720F008
:10098000A21BB30BE40BF50B661F771F881F991F83
:100990001A9469F760957095809590959B01AC01CC
:1009A000BD01CF010895DC012D923D924D925D92E3
:1009B0006D927D928D929D92AD92BD92CD92DD927F
:1009C000ED92FD920D931D93CD93DD93FF91EF91E9
:1009D0008DB78D938EB78D938FB78D93ED93FD93D8
:1009E000882799270994DC01CB0181309105811D6D
:1009F0002D903D904D905D906D907D908D909D904F
:100A0000AD90BD90CD90DD90ED90FD900D911D913C
:100A1000CD91DD91ED91FD910D90F894FEBF0FBE4B
:0C0A2000EDBFED91FD910994F894FFCF1B
:040A2C0010017D0137
:00000001FF
