:100000000C9438000C9455000C9455000C94140476
:100010000C9455000C9455000C9455000C94E70377
:100020000C9455000C9455000C9455000C945500FC
:100030000C9455000C9455000C9455000C945500EC
:100040000C9455000C9455000C9455000C945500DC
:100050000C9455000C9455000C945500120132017B
:1000600041016E019301B501DC011202D700960037
:1000700011241FBECFEFD4E0DEBFCDBF11E0A0E062
:10008000B1E0E4E6F9E002C005900D92A430B107BA
:10009000D9F723E0A4E0B1E001C01D92AC32B20771
:1000A000E1F70E94A6020C94B0040C940000EF92B9
:1000B000FF920F931F93CF93DF93E82FDB0177FD20
:1000C00074C0B595A7956170707877FD67C0660FAD
:1000D000771F660F771FAD0144515F4FEA0188819A
:1000E00020EF30E0062E02C0359527950A94E2F7FE
:1000F000822388837D01D1EFED0EF11CE701888119
:10010000822388832596888182238883A550BF4FC8
:100110008C9128232C930E2F10E0F801F097EA30F1
:10012000F105A8F5E25DFF4F0C944704DA01EC916C
:1001300081E090E09C01062E01C0220F0A94EAF7AC
:100140003E2F320F3C93F7014081FB0132968C0128
:1001500002C0000F111FEA95E2F7322F302B340F47
:10016000D7013C933881AB014F5F5F4FFC0102C068
:10017000EE0FFF1F4A95E2F7AF016D5F7F4F01C0A1
:10018000880F6A95EAF7842B822B830F8883DF918F
:10019000CF911F910F91FF90EF90089561507109D9
:1001A0006E6F7F6F6F5F7F4F92CF11968ACFFA018C
:1001B000108181E090E09C01062E01C0220F0A947C
:1001C000EAF7312F320F3083F7013081AB014E5FF8
:1001D0005F4F8C0101C0000F4A95EAF7402F422B78
:1001E000340F30833881AB014F5F5F4FFC0102C099
:1001F000EE0FFF1F4A95E2F7AF01402B422B6D5FD8
:100200007F4F01C0880F6A95EAF7842B830F88839C
:100210008C91280F2C93DF91CF911F910F91FF901C
:10022000EF900895FA01108181E090E09C01062E84
:1002300001C0220F0A94EAF7312F320F3083F70101
:1002400030816E5F7F4F01C0880F6A95EAF7822B7D
:10025000932F980F90839881890F88838C91280F12
:100260002C9395CFD7012C9181E090E001C0880FAD
:100270006A95EAF7922F980F9C939881890F88834B
:1002800086CFFA01108181E090E09C01062E01C02A
:10029000220F0A94EAF7312F320F3083F7013081B1
:1002A000320F30833881AB014F5F5F4FFC01042E6A
:1002B00001C0EE0F0A94EAF74F5F5F4F8C0102C056
:1002C000000F111F4A95E2F7A8014E2B6D5F7F4F7B
:1002D00001C0880F6A95EAF7842B98CFFA01108144
:1002E00081E090E09C01062E01C0220F0A94EAF7FB
:1002F000312F320F3083F7013081320F3083388154
:10030000AB014F5F5F4F8C0102C0000F111F4A9578
:10031000E2F7A8016D5F7F4F01C0880F6A95EAF789
:10032000842B822B73CFD7014C9181E090E09C010C
:10033000062E01C0220F0A94EAF7FB0132968C01C7
:1003400002C0000F111FEA95E2F7322F302B340F55
:100350003C933881AB014F5F5F4FDC0102C0AA0FB5
:10036000BB1F4A95E2F7AD0108CFFA01108181E089
:1003700090E09C01062E01C0220F0A94EAF7312F6B
:10038000320F3083F7013081AB014E5F5F4F8C013C
:1003900002C0000F111F4A95E2F7A801430F4083E6
:1003A0003881AB014F5F5F4FFC0102C0EE0FFF1FB2
:1003B0004A95E2F7AF01AECFFA01208181E090E0EB
:1003C0008C01062E01C0000F0A94EAF7200F20834B
:1003D000F70140819B012E5F3F4FFC0102C0EE0FF1
:1003E000FF1F2A95E2F79F01342F320FF701308368
:1003F0003881AB014F5F5F4FFC0102C0EE0FFF1F62
:100400004A95E2F72E2B202B6D5F7F4F01C0880F9E
:100410006A95EAF7822B830F88838C91E02FE80F8F
:10042000EC93B5CEDA012C9181E090E001C0880F09
:100430006A95EAF7922F980F9C93F7019081980F95
:1004400090839881890F8883A2CE8F929F92AF92DA
:10045000BF92CF92DF92EF92FF92CF93DF934B0147
:100460005C01EA0124E630E040E050E00E9428040C
:100470002AE0C22ED12CE12CF12CA70196010E947A
:100480002804BE0180E3820F0E9457002196C50117
:10049000B401A70196010E942804862FBE01805D49
:1004A000DF91CF91FF90EF90DF90CF90BF90AF9012
:1004B0009F908F900C945700EC01C12CD12C7601A9
:1004C000C3948FEFC81AD80AE80AF80A82E0C8165F
:1004D000D104E104F104E1F0C0FEF3CF83E0882E03
:1004E000912CA12CB12C9401A5018C149D04AE0477
:1004F000BF0474F48FEF881A980AA80AB80AC701D3
:10050000B6010E942804672B682B692B61F7D9CFAD
:10051000AE01C701B6010E942502D3CFEC0110E065
:1005200001E0C12ED12CE12CF12CAE01C701B601A6
:100530000E9425028091090190910A010597ACF370
:10054000102710920A0110920901EBCF60E070E0D1
:100550008CE592E00E94D00283E090E00E948E023F
:10056000CF93DF9300D0CDB7DEB79A838983809194
:1005700000019091010106960E946F04892B29F0D9
:100580000F900F90DF91CF91089589819A81909378
:1005900001018093000161E070E006960E948F04E3
:1005A000CF93DF9300D0CDB7DEB7F894209104014C
:1005B00030910501232B09F443C0209102013091B1
:1005C00003013A832983232B09F48AC0E981FA8144
:1005D00044815581509303014093020191838083AC
:1005E0007383628315821482CF0106960E946F0482
:1005F000019709F482C0E981FA81369689819A814E
:1006000087599F4F918B808B938B828BE981FA81E5
:1006100015821482E0910601F0910701309711F4E0
:1006200060C0FC01848195810097D9F789819A8106
:100630009583848378940F900F90DF91CF910895E4
:1006400025EE31E030937D0120937C0122E532E0FC
:100650003093EA012093E9012FEB32E03093570207
:10066000209356021092C4021092C302E1E6F0E019
:1006700020E82083108240EC4093E40037E330937D
:10068000E50037E03093E6005FE05093E70035B1D6
:10069000305835B954B9000020936C002DBB22E0CE
:1006A00020936F00409380002DE0209381002DE087
:1006B00033E03093890020938800109285001092D7
:1006C000840021E030E03093050120930401209163
:1006D0000201309103013A832983232B09F076CF5D
:1006E000FFCF29813A813093070120930601789446
:1006F0000F900F90DF91CF9108957894A091000111
:10070000B0910101ED91FC91119712968D919C9100
:1007100013970995F894A0910001B09101011596E5
:100720001C921E921497E0910201F0910301309700
:1007300011F417C0FC01848195810097D9F7B58326
:10074000A48380910601909107010097A1F0FC011C
:100750002481358130930701209306010E94B00265
:100760004ACFB0930301A0930201809106019091BA
:100770000701009761F7FFCFF894809100019091F5
:100780000101FC0115821482A0910601B0910701BC
:100790001097B9F0FD0101C0F901248135812115BF
:1007A0003105D1F79583848314962D913C9115974B
:1007B000CD0130930701209306010E94B002789486
:1007C0000895009709F4FFCF20E030E0F2CF1F92A8
:1007D0000F920FB60F9211242F933F934F935F9375
:1007E0006F937F938F939F93AF93BF93EF93FF93F9
:1007F0008091090190910A01019690930A018093DA
:1008000009010E94BC03FF91EF91BF91AF919F91AD
:100810008F917F916F915F914F913F912F910F90A9
:100820000FBE0F901F9018951F920F920FB60F9248
:1008300011248F939F939091080181E089278093E1
:1008400008019F918F910F900FBE0F901F901895E8
:10085000052E97FB1EF400940E943F0457FD07D01D
:100860000E944D0407FC03D04EF40C943F045095B5
:100870004095309521953F4F4F4F5F4F089590958C
:100880008095709561957F4F8F4F9F4F0895EE0F24
:10089000FF1F0590F491E02D0994A1E21A2EAA1BE6
:1008A000BB1BFD010DC0AA1FBB1FEE1FFF1FA21720
:1008B000B307E407F50720F0A21BB30BE40BF50B1D
:1008C000661F771F881F991F1A9469F760957095A6
:1008D000809590959B01AC01BD01CF010895DC018D
:1008E0002D923D924D925D926D927D928D929D9250
:1008F000AD92BD92CD92DD92ED92FD920D931D933E
:10090000CD93DD93FF91EF918DB78D938EB78D933E
:100910008FB78D93ED93FD93882799270994DC0178
:10092000CB0181309105811D2D903D904D905D90C2
:100930006D907D908D909D90AD90BD90CD90DD900F
:10094000ED90FD900D911D91CD91DD91ED91FD9179
:100950000D90F894FEBF0FBEEDBFED91FD9109948F
:04096000F894FFCF39
:040964000B0178010A
:00000001FF
