S00C00004C6162352E73726563D4
S11300000C9438000C9448030C94B4030C9420040E
S11300100C948C040C94F8040C9455000C94EF0983
S11300200C9455000C949C090C9464050C94D00514
S11300300C943C060C948E020C9498020C94C0020E
S11300400C94A8060C9414070C9480070C94EC07E9
S11300500C9458080C94C4080C9430091201320111
S113006041016E019301B501DC011202D700960033
S113007011241FBECFEFD4E0DEBFCDBF11E0A0E05E
S1130080B1E0E0EAF6E102C005900D92A630B107B6
S1130090D9F724E0A6E0B1E001C01D92AF35B20764
S11300A0E1F70E9473020C944E0B0C940000EF9243
S11300B0FF920F931F93CF93DF93E82FDB0177FD1C
S11300C074C0B595A7956170707877FD67C0660FA9
S11300D0771F660F771FAD0144515F4FEA01888196
S11300E020EF30E0062E02C0359527950A94E2F7FA
S11300F0822388837D01D1EFED0EF11CE701888115
S1130100822388832596888182238883A550BF4FC4
S11301108C9128232C930E2F10E0F801F097EA30ED
S1130120F105A8F5E25DFF4F0C94F30ADA01EC91B6
S113013081E090E09C01062E01C0220F0A94EAF7A8
S11301403E2F320F3C93F7014081FB0132968C0124
S113015002C0000F111FEA95E2F7322F302B340F43
S1130160D7013C933881AB014F5F5F4FFC0102C064
S1130170EE0FFF1F4A95E2F7AF016D5F7F4F01C09D
S1130180880F6A95EAF7842B822B830F8883DF918B
S1130190CF911F910F91FF90EF90089561507109D5
S11301A06E6F7F6F6F5F7F4F92CF11968ACFFA0188
S11301B0108181E090E09C01062E01C0220F0A9478
S11301C0EAF7312F320F3083F7013081AB014E5FF4
S11301D05F4F8C0101C0000F4A95EAF7402F422B74
S11301E0340F30833881AB014F5F5F4FFC0102C095
S11301F0EE0FFF1F4A95E2F7AF01402B422B6D5FD4
S11302007F4F01C0880F6A95EAF7842B830F888398
S11302108C91280F2C93DF91CF911F910F91FF9018
S1130220EF900895FA01108181E090E09C01062E80
S113023001C0220F0A94EAF7312F320F3083F701FD
S113024030816E5F7F4F01C0880F6A95EAF7822B79
S1130250932F980F90839881890F88838C91280F0E
S11302602C9395CFD7012C9181E090E001C0880FA9
S11302706A95EAF7922F980F9C939881890F888347
S113028086CFFA01108181E090E09C01062E01C026
S1130290220F0A94EAF7312F320F3083F7013081AD
S11302A0320F30833881AB014F5F5F4FFC01042E66
S11302B001C0EE0F0A94EAF74F5F5F4F8C0102C052
S11302C0000F111F4A95E2F7A8014E2B6D5F7F4F77
S11302D001C0880F6A95EAF7842B98CFFA01108140
S11302E081E090E09C01062E01C0220F0A94EAF7F7
S11302F0312F320F3083F7013081320F3083388150
S1130300AB014F5F5F4F8C0102C0000F111F4A9574
S1130310E2F7A8016D5F7F4F01C0880F6A95EAF785
S1130320842B822B73CFD7014C9181E090E09C0108
S1130330062E01C0220F0A94EAF7FB0132968C01C3
S113034002C0000F111FEA95E2F7322F302B340F51
S11303503C933881AB014F5F5F4FDC0102C0AA0FB1
S1130360BB1F4A95E2F7AD0108CFFA01108181E085
S113037090E09C01062E01C0220F0A94EAF7312F67
S1130380320F3083F7013081AB014E5F5F4F8C0138
S113039002C0000F111F4A95E2F7A801430F4083E2
S11303A03881AB014F5F5F4FFC0102C0EE0FFF1FAE
S11303B04A95E2F7AF01AECFFA01208181E090E0E7
S11303C08C01062E01C0000F0A94EAF7200F208347
S11303D0F70140819B012E5F3F4FFC0102C0EE0FED
S11303E0FF1F2A95E2F79F01342F320FF701308364
S11303F03881AB014F5F5F4FFC0102C0EE0FFF1F5E
S11304004A95E2F72E2B202B6D5F7F4F01C0880F9A
S11304106A95EAF7822B830F88838C91E02FE80F8B
S1130420EC93B5CEDA012C9181E090E001C0880F05
S11304306A95EAF7922F980F9C93F7019081980F91
S113044090839881890F8883A2CEEF92FF920F93B5
S11304501F93CF93DF937B01FC01C481D581CC0F23
S1130460DD1FCC0FDD1FCB0164E670E00E94DF0AC4
S11304700AE010E0B8010E94DF0A862FBE01805D09
S11304800E9457002196C701B8010E94DF0ABE01ED
S1130490805DDF91CF911F910F91FF90EF900C94AD
S11304A05700E1E6F0E080E88083108290EC9093BE
S11304B0E40087E38093E50087E08093E6008FE023
S11304C08093E70085B1806D85B98EB18C608EB95B
S11304D08FE284B900008CE080936B0080ED809300
S11304E06C009DBB089578941092C50083E38093BB
S11304F0C40088E98093C10086E08093C2000E9412
S113050051028091C00087FFFCCF9091C60080917A
S1130510C00085FFFCCF9093C600F3CF1F920F92CB
S11305200FB60F9211240F900FBE0F901F901895C5
S11305301F920F920FB60F9211242F933F934F9354
S11305405F936F937F938F939F93AF93BF93EF9337
S1130550FF9361E070E086E091E00E942502FF9144
S1130560EF91BF91AF919F918F917F916F915F9127
S11305704F913F912F910F900FBE0F901F901895A0
S11305801F920F920FB60F9211242F933F934F9304
S11305905F936F937F938F939F93AF93BF93EF93E7
S11305A0FF9362E070E086E091E00E942502FF91F3
S11305B0EF91BF91AF919F918F917F916F915F91D7
S11305C04F913F912F910F900FBE0F901F90189550
S11305D0CF93DF9300D0CDB7DEB79A838983809120
S11305E000019091010106960E940D0B892B29F0C0
S11305F00F900F90DF91CF91089589819A81909304
S113060001018093000161E070E006960E942D0BC9
S11306100F931F93CF93DF93E0911401F091150191
S11306203097F1F080910401909105010097C1F099
S1130630C0910201D0910301AA81BB811097A9F056
S1130640468157816085718516960D911D912D9176
S11306503C911997401B510B620B730B77FD05C03E
S1130660DF91CF911F910F910895FC012081318179
S11306703093050120930401D183C0839093030137
S113068080930201DF91CF911F910F910C94E802A6
S11306901F920F920FB60F9211242F933F934F93F3
S11306A05F936F937F938F939F93AF93BF93EF93D6
S11306B0FF9320910C0130910D01409184005091E1
S11306C08500C901032E000CAA0BBB0BDC01992782
S11306D0882760E070E0842B952BA62BB72B8093A2
S11306E00E0190930F01A0931001B0931101B09BE0
S11306F01BC04091840050918500C9010196092EC8
S1130700000CAA0BBB0BDC019927882760E070E082
S1130710842B952BA62BB72B80930E0190930F015E
S1130720A0931001B0931101E091AE01F091AF01DB
S1130730309739F060E070E08091160190911701D4
S113074009950E940803FF91EF91BF91AF919F918A
S11307508F917F916F915F914F913F912F910F9066
S11307600FBE0F901F9018951F920F920FB60F9205
S113077011242F933F934F935F936F937F938F93A2
S11307809F93AF93BF93EF93FF9320910C0130910C
S11307900D014091840050918500C901032E000C85
S11307A0AA0BBB0BDC019927882760E070E0842B3F
S11307B0952BA62BB72B80930E0190930F01A0933A
S11307C01001B0931101B09B1BC040918400509163
S11307D08500C9010196092E000CAA0BBB0BDC0194
S11307E09927882760E070E0842B952BA62BB72BE4
S11307F080930E0190930F01A0931001B093110107
S1130800E091B001F091B101309739F061E070E00E
S1130810809118019091190109950E940803FF9194
S1130820EF91BF91AF919F918F917F916F915F9164
S11308304F913F912F910F900FBE0F901F901895DD
S11308401F920F920FB60F9211242F933F934F9341
S11308505F936F937F938F939F93AF93BF93EF9324
S1130860FF9320910C0130910D014091840050912F
S11308708500C901032E000CAA0BBB0BDC019927D0
S1130880882760E070E0842B952BA62BB72B8093F0
S11308900E0190930F01A0931001B0931101B09B2E
S11308A01BC04091840050918500C9010196092E16
S11308B0000CAA0BBB0BDC019927882760E070E0D1
S11308C0842B952BA62BB72B80930E0190930F01AD
S11308D0A0931001B0931101E091B201F091B30122
S11308E0309739F062E070E080911A0190911B0119
S11308F009950E940803FF91EF91BF91AF919F91D9
S11309008F917F916F915F914F913F912F910F90B4
S11309100FBE0F901F9018951F920F920FB60F9253
S113092011242F933F934F935F936F937F938F93F0
S11309309F93AF93BF93EF93FF9320910C0130915A
S11309400D014091840050918500C901032E000CD3
S1130950AA0BBB0BDC019927882760E070E0842B8D
S1130960952BA62BB72B80930E0190930F01A09388
S11309701001B0931101B09B1BC0409184005091B1
S11309808500C9010196092E000CAA0BBB0BDC01E2
S11309909927882760E070E0842B952BA62BB72B32
S11309A080930E0190930F01A0931001B093110155
S11309B0E091B401F091B501309739F063E070E053
S11309C080911C0190911D0109950E940803FF91DB
S11309D0EF91BF91AF919F918F917F916F915F91B3
S11309E04F913F912F910F900FBE0F901F9018952C
S11309F01F920F920FB60F9211242F933F934F9390
S1130A005F936F937F938F939F93AF93BF93EF9372
S1130A10FF9320910C0130910D014091840050917D
S1130A208500C901032E000CAA0BBB0BDC0199271E
S1130A30882760E070E0842B952BA62BB72B80933E
S1130A400E0190930F01A0931001B0931101B09B7C
S1130A501BC04091840050918500C9010196092E64
S1130A60000CAA0BBB0BDC019927882760E070E01F
S1130A70842B952BA62BB72B80930E0190930F01FB
S1130A80A0931001B0931101E091B601F091B70168
S1130A90309739F064E070E080911E0190911F015D
S1130AA009950E940803FF91EF91BF91AF919F9127
S1130AB08F917F916F915F914F913F912F910F9003
S1130AC00FBE0F901F9018951F920F920FB60F92A2
S1130AD011242F933F934F935F936F937F938F933F
S1130AE09F93AF93BF93EF93FF9320910C013091A9
S1130AF00D014091840050918500C901032E000C22
S1130B00AA0BBB0BDC019927882760E070E0842BDB
S1130B10952BA62BB72B80930E0190930F01A093D6
S1130B201001B0931101B09B1BC0409184005091FF
S1130B308500C9010196092E000CAA0BBB0BDC0130
S1130B409927882760E070E0842B952BA62BB72B80
S1130B5080930E0190930F01A0931001B0931101A3
S1130B60E091B801F091B901309739F065E070E097
S1130B70809120019091210109950E940803FF9121
S1130B80EF91BF91AF919F918F917F916F915F9101
S1130B904F913F912F910F900FBE0F901F9018957A
S1130BA01F920F920FB60F9211242F933F934F93DE
S1130BB05F936F937F938F939F93AF93BF93EF93C1
S1130BC0FF9320910C0130910D01409184005091CC
S1130BD08500C901032E000CAA0BBB0BDC0199276D
S1130BE0882760E070E0842B952BA62BB72B80938D
S1130BF00E0190930F01A0931001B0931101B09BCB
S1130C001BC04091840050918500C9010196092EB2
S1130C10000CAA0BBB0BDC019927882760E070E06D
S1130C20842B952BA62BB72B80930E0190930F0149
S1130C30A0931001B0931101E091BA01F091BB01AE
S1130C40309739F066E070E08091220190912301A1
S1130C5009950E940803FF91EF91BF91AF919F9175
S1130C608F917F916F915F914F913F912F910F9051
S1130C700FBE0F901F9018951F920F920FB60F92F0
S1130C8011242F933F934F935F936F937F938F938D
S1130C909F93AF93BF93EF93FF9320910C013091F7
S1130CA00D014091840050918500C901032E000C70
S1130CB0AA0BBB0BDC019927882760E070E0842B2A
S1130CC0952BA62BB72B80930E0190930F01A09325
S1130CD01001B0931101B09B1BC04091840050914E
S1130CE08500C9010196092E000CAA0BBB0BDC017F
S1130CF09927882760E070E0842B952BA62BB72BCF
S1130D0080930E0190930F01A0931001B0931101F1
S1130D10E091BC01F091BD01309739F067E070E0DB
S1130D20809124019091250109950E940803FF9167
S1130D30EF91BF91AF919F918F917F916F915F914F
S1130D404F913F912F910F900FBE0F901F901895C8
S1130D501F920F920FB60F9211242F933F934F932C
S1130D605F936F937F938F939F93AF93BF93EF930F
S1130D70FF9320910C0130910D014091840050911A
S1130D808500C901032E000CAA0BBB0BDC019927BB
S1130D90882760E070E0842B952BA62BB72B8093DB
S1130DA00E0190930F01A0931001B0931101B09B19
S1130DB01BC04091840050918500C9010196092E01
S1130DC0000CAA0BBB0BDC019927882760E070E0BC
S1130DD0842B952BA62BB72B80930E0190930F0198
S1130DE0A0931001B0931101E091C401F091C501E9
S1130DF0309739F06BE070E080912C0190912D01D7
S1130E0009950E940803FF91EF91BF91AF919F91C3
S1130E108F917F916F915F914F913F912F910F909F
S1130E200FBE0F901F9018951F920F920FB60F923E
S1130E3011242F933F934F935F936F937F938F93DB
S1130E409F93AF93BF93EF93FF9320910C01309145
S1130E500D014091840050918500C901032E000CBE
S1130E60AA0BBB0BDC019927882760E070E0842B78
S1130E70952BA62BB72B80930E0190930F01A09373
S1130E801001B0931101B09B1BC04091840050919C
S1130E908500C9010196092E000CAA0BBB0BDC01CD
S1130EA09927882760E070E0842B952BA62BB72B1D
S1130EB080930E0190930F01A0931001B093110140
S1130EC0E091C601F091C701309739F06CE070E011
S1130ED080912E0190912F0109950E940803FF91A2
S1130EE0EF91BF91AF919F918F917F916F915F919E
S1130EF04F913F912F910F900FBE0F901F90189517
S1130F001F920F920FB60F9211242F933F934F937A
S1130F105F936F937F938F939F93AF93BF93EF935D
S1130F20FF9320910C0130910D0140918400509168
S1130F308500C901032E000CAA0BBB0BDC01992709
S1130F40882760E070E0842B952BA62BB72B809329
S1130F500E0190930F01A0931001B0931101B09B67
S1130F601BC04091840050918500C9010196092E4F
S1130F70000CAA0BBB0BDC019927882760E070E00A
S1130F80842B952BA62BB72B80930E0190930F01E6
S1130F90A0931001B0931101E091C801F091C9012F
S1130FA0309739F06DE070E080913001909131011B
S1130FB009950E940803FF91EF91BF91AF919F9112
S1130FC08F917F916F915F914F913F912F910F90EE
S1130FD00FBE0F901F9018951F920F920FB60F928D
S1130FE011242F933F934F935F936F937F938F932A
S1130FF09F93AF93BF93EF93FF9320910C01309194
S11310000D014091840050918500C901032E000C0C
S1131010AA0BBB0BDC019927882760E070E0842BC6
S1131020952BA62BB72B80930E0190930F01A093C1
S11310301001B0931101B09B1BC0409184005091EA
S11310408500C9010196092E000CAA0BBB0BDC011B
S11310509927882760E070E0842B952BA62BB72B6B
S113106080930E0190930F01A0931001B09311018E
S1131070E091CA01F091CB01309739F06EE070E055
S1131080809132019091330109950E940803FF91E8
S1131090EF91BF91AF919F918F917F916F915F91EC
S11310A04F913F912F910F900FBE0F901F90189565
S11310B01F920F920FB60F9211242F933F934F93C9
S11310C05F936F937F938F939F93AF93BF93EF93AC
S11310D0FF9320910C0130910D01409184005091B7
S11310E08500C901032E000CAA0BBB0BDC01992758
S11310F0882760E070E0842B952BA62BB72B809378
S11311000E0190930F01A0931001B0931101B09BB5
S11311101BC04091840050918500C9010196092E9D
S1131120000CAA0BBB0BDC019927882760E070E058
S1131130842B952BA62BB72B80930E0190930F0134
S1131140A0931001B0931101E091CC01F091CD0175
S1131150309739F06FE070E080913401909135015F
S113116009950E940803FF91EF91BF91AF919F9160
S11311708F917F916F915F914F913F912F910F903C
S11311800FBE0F901F9018951F920F920FB60F92DB
S113119011242F933F934F935F936F937F938F9378
S11311A09F93AF93BF93EF93FF9320910C013091E2
S11311B00D014091840050918500C901032E000C5B
S11311C0AA0BBB0BDC019927882760E070E0842B15
S11311D0952BA62BB72B80930E0190930F01A09310
S11311E01001B0931101B09B1BC040918400509139
S11311F08500C9010196092E000CAA0BBB0BDC016A
S11312009927882760E070E0842B952BA62BB72BB9
S113121080930E0190930F01A0931001B0931101DC
S1131220E091CE01F091CF01309739F060E170E0A8
S1131230809136019091370109950E940803FF912E
S1131240EF91BF91AF919F918F917F916F915F913A
S11312504F913F912F910F900FBE0F901F901895B3
S11312601F920F920FB60F9211242F933F934F9317
S11312705F936F937F938F939F93AF93BF93EF93FA
S1131280FF9320910C0130910D0140918400509105
S11312908500C901032E000CAA0BBB0BDC019927A6
S11312A0882760E070E0842B952BA62BB72B8093C6
S11312B00E0190930F01A0931001B0931101B09B04
S11312C01BC04091840050918500C9010196092EEC
S11312D0000CAA0BBB0BDC019927882760E070E0A7
S11312E0842B952BA62BB72B80930E0190930F0183
S11312F0A0931001B0931101E091D001F091D101BC
S1131300309739F061E170E08091380190913901B2
S113131009950E940803FF91EF91BF91AF919F91AE
S11313208F917F916F915F914F913F912F910F908A
S11313300FBE0F901F9018951F920F920FB60F9229
S113134011242F933F934F935F936F937F938F93C6
S11313509F93EF93FF9380910C0190910D0101965F
S113136090930D0180930C01E0911201F09113010F
S1131370309739F0428153816481758186179707CC
S1131380A1F080916F008D7F80936F00FF91EF91AA
S11313909F918F917F916F915F914F913F912F9189
S11313A00F900FBE0F901F901895CA0120918400D2
S11313B030918500421B530B4130510551F09093FD
S11313C089008093880080916F00826080936F0011
S11313D0DDCF80918400909185000196F0CF1F921B
S11313E00F920FB60F9211248F929F92AF92BF92D9
S11313F0CF92DF92EF92FF920F931F932F933F931D
S11314004F935F936F937F938F939F93AF93BF9308
S1131410CF93DF93EF93FF93E0900C01F0900D01D5
S11314208091840090918500B09998C047010F2C59
S1131430000CAA08BB08540199248824A0E0B0E059
S1131440882A992AAA2ABB2AC0911201D091130191
S11314508091140190911501209709F43FC04A81AD
S11314605B816C817D818A019B01081919092A0914
S11314703B0910161106120613060CF440C0D8805E
S1131480C9800097B9F10E811F8128853985FC0137
S1131490468157816085718504171507260737072C
S11314A04CF1DC010AC046815781608571850417BF
S11314B0150726073707DCF0DF01ED91FC91119742
S11314C0309789F719821882CD93DC93382F292F0E
S11314D0CD2DDC2D832F922F209709F61092130126
S11314E010921201909315018093140113C0F98393
S11314F0E883EACF998388833C2F2D2FE9CFD093BB
S11315001301C09312019093150180931401E61600
S1131510F706D9F180916F008D7F80936F000E9450
S11315200803FF91EF91DF91CF91BF91AF919F910C
S11315308F917F916F915F914F913F912F911F9167
S11315400F91FF90EF90DF90CF90BF90AF909F905E
S11315508F900F900FBE0F901F90189520918400CC
S11315603091850047018FEF881A980A092C000CE6
S1131570AA08BB08D401992788274901A12CB12CBA
S1131580882A992AAA2ABB2A5FCFCA0120918400FB
S113159030918500421B530B4130510551F090931B
S11315A089008093880080916F00826080936F002F
S11315B0B6CF80918400909185000196F0CF97FB7F
S11315C0072E16F4009407D077FD09D00E94F90A7B
S11315D007FC05D03EF4909581959F4F0895709532
S11315E061957F4F0895EE0FFF1F0590F491E02D54
S11315F00994AA1BBB1B51E107C0AA1FBB1FA61756
S1131600B70710F0A61BB70B881F991F5A95A9F7A7
S113161080959095BC01CD010895DC012D923D92F9
S11316204D925D926D927D928D929D92AD92BD92FE
S1131630CD92DD92ED92FD920D931D93CD93DD93AA
S1131640FF91EF918DB78D938EB78D938FB78D9357
S1131650ED93FD93882799270994DC01CB01813010
S11316609105811D2D903D904D905D906D907D90E4
S11316708D909D90AD90BD90CD90DD90ED90FD90BE
S11316800D911D91CD91DD91ED91FD910D90F89409
S1131690FEBF0FBEEDBFED91FD910994F894FFCF0D
S10916A0D201D2013A015F
S9030000FC
