:100000000C9438000C947A050C94E6050C94520676
:100010000C94BE060C942A070C9455000C94650DA4
:100020000C9455000C94120D0C9496070C94020835
:100030000C946E080C94DA080C9446090C94B209DE
:100040000C941E0A0C948A0A0C94F60A0C94620B07
:100050000C94CE0B0C943A0C0C94A60C03022302C5
:1000600032025F028402A602CD020303C8018701A7
:1000700011241FBECFEFD4E0DEBFCDBF11E0A0E062
:10008000B1E0E6EAF3E202C005900D92AC33B107AD
:10009000D9F724E0ACE3B1E001C01D92AF39B2075B
:1000A000E1F70E94DC030C94D1110C940000CF9274
:1000B000DF92EF92FF920F931F93FC01C680D780CF
:1000C00081E0C81AD108D782C682048115818BE6E7
:1000D000E82E83E0F82E20E030E0A90160E070E037
:1000E000CB010E94550E1F910F91FF90EF90DF9072
:1000F000CF900895CF92DF92EF92FF920F931F93CC
:10010000CF93DF93EC01CE80DF808FEFC81AD80A3F
:10011000DF82CE820C811D818BE6E82E83E0F82EF3
:1001200020E030E0A90160E070E0CB010E94550EB4
:10013000C12CD12C97E5E92E90E0F92E8E0120E01C
:1001400030E0A9016AE572E682E090E00E94550E77
:10015000DF91CF911F910F91FF90EF90DF90CF90A3
:100160000895CF92DF92EF92FF920F931F93FC01BD
:10017000828593850097C9F0019781F4C084D1846A
:100180000681178183E7E82E83E0F82E20E030E037
:10019000A90160E070E0CB010E94550E1F910F9104
:1001A000FF90EF90DF90CF900895C084D1840681B6
:1001B00017819FE6E92E93E0F92E20E030E0A901B7
:1001C00060E070E0CB010E94550E1F910F91FF90EF
:1001D000EF90DF90CF900895CF92DF92EF92FF9251
:1001E0000F931F93FC01208531852F5F3F4F31878F
:1001F0002087C12CD12C21EBE22E20E0F22E8C01A5
:1002000020E030E0A90160E070E0CB010E94550ED3
:100210001F910F91FF90EF90DF90CF900895CF92B4
:10022000DF92EF92FF920F931F93CF93DF93EC0136
:1002300088859985181619069CF4019799878887EF
:100240000C811D81C12CD12C9AE7E92E90E0F92E6A
:1002500020E030E0A90160E070E0CB010E94550E83
:10026000C12CD12C81EBE82E80E0F82E8E0120E00D
:1002700030E0A90160E070E0CB010E94550EDF91F3
:10028000CF911F910F91FF90EF90DF90CF90089545
:10029000EF92FF920F931F93CF93DF93E82FDB0131
:1002A00077FD74C0B595A7956170707877FD67C0CC
:1002B000660F771F660F771FAD0144515F4FEA014C
:1002C000888120EF30E0062E02C0359527950A94EC
:1002D000E2F7822388837D01D1EFED0EF11CE70167
:1002E0008881822388832596888182238883A550EC
:1002F000BF4F8C9128232C930E2F10E0F801F0971C
:10030000EA30F105A8F5E25DFF4F0C947611DA01B1
:10031000EC9181E090E09C01062E01C0220F0A942E
:10032000EAF73E2F320F3C93F7014081FB013296F2
:100330008C0102C0000F111FEA95E2F7322F302B1B
:10034000340FD7013C933881AB014F5F5F4FFC0105
:1003500002C0EE0FFF1F4A95E2F7AF016D5F7F4FBE
:1003600001C0880F6A95EAF7842B822B830F88835C
:10037000DF91CF911F910F91FF90EF900895615001
:1003800071096E6F7F6F6F5F7F4F92CF11968ACF2B
:10039000FA01108181E090E09C01062E01C0220F3D
:1003A0000A94EAF7312F320F3083F7013081AB0125
:1003B0004E5F5F4F8C0101C0000F4A95EAF7402F56
:1003C000422B340F30833881AB014F5F5F4FFC010C
:1003D00002C0EE0FFF1F4A95E2F7AF01402B422B00
:1003E0006D5F7F4F01C0880F6A95EAF7842B830FFA
:1003F00088838C91280F2C93DF91CF911F910F91BF
:10040000FF90EF900895FA01108181E090E09C0147
:10041000062E01C0220F0A94EAF7312F320F3083E3
:10042000F70130816E5F7F4F01C0880F6A95EAF750
:10043000822B932F980F90839881890F88838C91BA
:10044000280F2C9395CFD7012C9181E090E001C02B
:10045000880F6A95EAF7922F980F9C939881890FDD
:10046000888386CFFA01108181E090E09C01062EFE
:1004700001C0220F0A94EAF7312F320F3083F701BF
:100480003081320F30833881AB014F5F5F4FFC0109
:10049000042E01C0EE0F0A94EAF74F5F5F4F8C0104
:1004A00002C0000F111F4A95E2F7A8014E2B6D5FA5
:1004B0007F4F01C0880F6A95EAF7842B98CFFA0125
:1004C000108181E090E09C01062E01C0220F0A9469
:1004D000EAF7312F320F3083F7013081320F30834A
:1004E0003881AB014F5F5F4F8C0102C0000F111FBD
:1004F0004A95E2F7A8016D5F7F4F01C0880F6A95AA
:10050000EAF7842B822B73CFD7014C9181E090E0E6
:100510009C01062E01C0220F0A94EAF7FB013296D5
:100520008C0102C0000F111FEA95E2F7322F302B29
:10053000340F3C933881AB014F5F5F4FDC0102C049
:10054000AA0FBB1F4A95E2F7AD0108CFFA0110814F
:1005500081E090E09C01062E01C0220F0A94EAF788
:10056000312F320F3083F7013081AB014E5F5F4F87
:100570008C0102C0000F111F4A95E2F7A801430F3A
:1005800040833881AB014F5F5F4FFC0102C0EE0F2B
:10059000FF1F4A95E2F7AF01AECFFA01208181E05B
:1005A00090E08C01062E01C0000F0A94EAF7200F9C
:1005B0002083F70140819B012E5F3F4FFC0102C069
:1005C000EE0FFF1F2A95E2F79F01342F320FF7013C
:1005D00030833881AB014F5F5F4FFC0102C0EE0FEB
:1005E000FF1F4A95E2F72E2B202B6D5F7F4F01C036
:1005F000880F6A95EAF7822B830F88838C91E02F0E
:10060000E80FEC93B5CEDA012C9181E090E001C0C7
:10061000880F6A95EAF7922F980F9C93F7019081C3
:10062000980F90839881890F8883A2CEEF92FF92D2
:100630000F931F93CF93DF93EC017B01CB0164E613
:1006400070E00E9462110AE010E0B8010E9462119D
:10065000862FBE01805D0E9448012196C701B80126
:100660000E946211BE01805DDF91CF911F910F91B9
:10067000FF90EF900C944801E1E6F0E080E8808381
:10068000108280EC8093E40087E38093E50087E0AC
:100690008093E6008FE08093E70060E070E080E305
:1006A0000E94480161E070E080E30E94480162E03E
:1006B00070E080E30E94480163E070E080E30E9404
:1006C000480164E070E080E30E94480165E070E06A
:1006D00080E30C94480182E090E00C94160380E0E3
:1006E00090E00C94160384E090E00C941603AF9213
:1006F000BF92CF92DF92EF92FF920F931F93CF930F
:100700005C01C091C600C0FD45C0C1FD31C0C2FD45
:100710001DC0C3FF11C0F50100851185C12CD12C6E
:100720008FE0E82E81E0F82E20E030E0A90160E0C3
:1007300070E0CB010E94550ECF911F910F91FF9059
:10074000EF90DF90CF90BF90AF900895F5010085B6
:100750001185C12CD12C9CEEE92E90E0F92E20E0E1
:1007600030E0A90160E070E0CB010E94550ED1CFCE
:10077000F50106811781C12CD12C2FE0E22E21E05A
:10078000F22E20E030E0A90160E070E0CB010E9491
:10079000550EBDCFFC0106811781C12CD12C3CEE3A
:1007A000E32E30E0F32E20E030E0A90160E070E0BD
:1007B000CB010E94550EA9CF1092C50083E3809310
:1007C000C40088E98093C10086E08093C2000E9443
:1007D0003C0348E067E773E088E091E00E94C210C4
:1007E000789440E050E068EF70E180E091E00C9494
:1007F000DC10FC019091C00095FFFCCF2681378171
:10080000C901880F991F20853185220F331F220FC0
:10081000331F282B8481282B82859385880F991F6D
:10082000880F991F880F991F822B8093C600089507
:10083000CF92DF92EF92FF920F931F9321E030E06F
:10084000FC013583248317821682C12CD12C29EF19
:10085000E22E23E0F22E8C0120E030E0A90160E0DE
:1008600070E0CB010E94550E1F910F91FF90EF9009
:10087000DF90CF900895CF92DF92EF92FF920F9387
:100880001F93FC011582148221E030E03783268318
:10089000C12CD12C29EFE22E23E0F22E8C0120E096
:1008A00030E0A90160E070E0CB010E94550E1F917D
:1008B0000F91FF90EF90DF90CF900895CF92DF924D
:1008C000EF92FF920F931F9321E030E0FC013187FC
:1008D000208713861286C12CD12C29EFE22E23E02B
:1008E000F22E8C0120E030E0A90160E070E0CB0145
:1008F0000E94550E1F910F91FF90EF90DF90CF90C7
:100900000895CF92DF92EF92FF920F931F93FC0115
:100910001186108621E030E033872287C12CD12C4C
:1009200029EFE22E23E0F22E8C0120E030E0A90135
:1009300060E070E0CB010E94550E1F910F91FF9077
:10094000EF90DF90CF900895CF93DF9300D000D049
:10095000CDB7DEB78FE392E02FE133E0FC01709773
:1009600091838083409682179307C1F710921003FA
:1009700010920F03EAE7F1E087E991E09183808329
:1009800084EB91E0968F858FA1EDB1E0B3AFA2AF7C
:100990001D921C92FA83E983EBE7F3E0FC83EB837F
:1009A00089819A8106960E9490118B819C81E981B0
:1009B000FA81978B868B918F808F87E490E1948F5B
:1009C000838F158214827D96FA83E983EB81FC8103
:1009D000E05AFF4FFC83EB8389819A818E5E9140C0
:1009E000F9F6E2E1F2E0118210821582148213829C
:1009F0001282E1E6F0E080E88083108210928500A8
:100A00001092840084E08093810081E080936F00E5
:100A10000F900F900F900F90DF91CF910895CF938B
:100A2000DF9300D0CDB7DEB79A83898380913401FC
:100A30009091350106960E949011892B29F00F9014
:100A40000F90DF91CF91089589819A81909335011C
:100A50008093340161E070E006960E94B0110F931C
:100A60001F93CF93DF93E0915401F091550130979C
:100A7000F1F080913801909139010097C1F0C09157
:100A80003601D0913701AA81BB811097A9F0468128
:100A900057816085718516960D911D912D913C9120
:100AA0001997401B510B620B730B77FD05C0DF914B
:100AB000CF911F910F910895FC01208131813093D6
:100AC000390120933801D183C083909337018093FB
:100AD0003601DF91CF911F910F910C940F058FEF8D
:100AE0008093EC008093ED008093EE0081E083BF63
:100AF0008895FDCF1F920F920FB60F9211242F935E
:100B00003F934F935F936F937F938F939F93AF9395
:100B1000BF93EF93FF9320914C0130914D01409191
:100B2000840050918500C901032E000CAA0BBB0B59
:100B3000DC019927882760E070E0842B952BA62B99
:100B4000B72B80934E0190934F01A0935001B09327
:100B50005101B09B1BC04091840050918500C90198
:100B60000196092E000CAA0BBB0BDC0199278827E4
:100B700060E070E0842B952BA62BB72B80934E0161
:100B800090934F01A0935001B0935101E091EE0179
:100B9000F091EF01309739F060E070E080915601FC
:100BA0009091570109950E942F05FF91EF91BF91F8
:100BB000AF919F918F917F916F915F914F913F91F5
:100BC0002F910F900FBE0F901F9018951F920F92AC
:100BD0000FB60F9211242F933F934F935F936F9310
:100BE0007F938F939F93AF93BF93EF93FF93209146
:100BF0004C0130914D014091840050918500C90114
:100C0000032E000CAA0BBB0BDC019927882760E0A0
:100C100070E0842B952BA62BB72B80934E019093DD
:100C20004F01A0935001B0935101B09B1BC0409164
:100C3000840050918500C9010196092E000CAA0B71
:100C4000BB0BDC019927882760E070E0842B952B93
:100C5000A62BB72B80934E0190934F01A093500188
:100C6000B0935101E091F001F091F101309739F02A
:100C700061E070E0809158019091590109950E94BE
:100C80002F05FF91EF91BF91AF919F918F917F9130
:100C90006F915F914F913F912F910F900FBE0F90E9
:100CA0001F9018951F920F920FB60F9211242F9339
:100CB0003F934F935F936F937F938F939F93AF93E4
:100CC000BF93EF93FF9320914C0130914D014091E0
:100CD000840050918500C901032E000CAA0BBB0BA8
:100CE000DC019927882760E070E0842B952BA62BE8
:100CF000B72B80934E0190934F01A0935001B09376
:100D00005101B09B1BC04091840050918500C901E6
:100D10000196092E000CAA0BBB0BDC019927882732
:100D200060E070E0842B952BA62BB72B80934E01AF
:100D300090934F01A0935001B0935101E091F201C3
:100D4000F091F301309739F062E070E080915A0140
:100D500090915B0109950E942F05FF91EF91BF9142
:100D6000AF919F918F917F916F915F914F913F9143
:100D70002F910F900FBE0F901F9018951F920F92FA
:100D80000FB60F9211242F933F934F935F936F935E
:100D90007F938F939F93AF93BF93EF93FF93209194
:100DA0004C0130914D014091840050918500C90162
:100DB000032E000CAA0BBB0BDC019927882760E0EF
:100DC00070E0842B952BA62BB72B80934E0190932C
:100DD0004F01A0935001B0935101B09B1BC04091B3
:100DE000840050918500C9010196092E000CAA0BC0
:100DF000BB0BDC019927882760E070E0842B952BE2
:100E0000A62BB72B80934E0190934F01A0935001D6
:100E1000B0935101E091F401F091F501309739F070
:100E200063E070E080915C0190915D0109950E9402
:100E30002F05FF91EF91BF91AF919F918F917F917E
:100E40006F915F914F913F912F910F900FBE0F9037
:100E50001F9018951F920F920FB60F9211242F9387
:100E60003F934F935F936F937F938F939F93AF9332
:100E7000BF93EF93FF9320914C0130914D0140912E
:100E8000840050918500C901032E000CAA0BBB0BF6
:100E9000DC019927882760E070E0842B952BA62B36
:100EA000B72B80934E0190934F01A0935001B093C4
:100EB0005101B09B1BC04091840050918500C90135
:100EC0000196092E000CAA0BBB0BDC019927882781
:100ED00060E070E0842B952BA62BB72B80934E01FE
:100EE00090934F01A0935001B0935101E091F6010E
:100EF000F091F701309739F064E070E080915E0185
:100F000090915F0109950E942F05FF91EF91BF918C
:100F1000AF919F918F917F916F915F914F913F9191
:100F20002F910F900FBE0F901F9018951F920F9248
:100F30000FB60F9211242F933F934F935F936F93AC
:100F40007F938F939F93AF93BF93EF93FF932091E2
:100F50004C0130914D014091840050918500C901B0
:100F6000032E000CAA0BBB0BDC019927882760E03D
:100F700070E0842B952BA62BB72B80934E0190937A
:100F80004F01A0935001B0935101B09B1BC0409101
:100F9000840050918500C9010196092E000CAA0B0E
:100FA000BB0BDC019927882760E070E0842B952B30
:100FB000A62BB72B80934E0190934F01A093500125
:100FC000B0935101E091F801F091F901309739F0B7
:100FD00065E070E0809160019091610109950E9447
:100FE0002F05FF91EF91BF91AF919F918F917F91CD
:100FF0006F915F914F913F912F910F900FBE0F9086
:101000001F9018951F920F920FB60F9211242F93D5
:101010003F934F935F936F937F938F939F93AF9380
:10102000BF93EF93FF9320914C0130914D0140917C
:10103000840050918500C901032E000CAA0BBB0B44
:10104000DC019927882760E070E0842B952BA62B84
:10105000B72B80934E0190934F01A0935001B09312
:101060005101B09B1BC04091840050918500C90183
:101070000196092E000CAA0BBB0BDC0199278827CF
:1010800060E070E0842B952BA62BB72B80934E014C
:1010900090934F01A0935001B0935101E091FA0158
:1010A000F091FB01309739F066E070E080916201C9
:1010B0009091630109950E942F05FF91EF91BF91D7
:1010C000AF919F918F917F916F915F914F913F91E0
:1010D0002F910F900FBE0F901F9018951F920F9297
:1010E0000FB60F9211242F933F934F935F936F93FB
:1010F0007F938F939F93AF93BF93EF93FF93209131
:101100004C0130914D014091840050918500C901FE
:10111000032E000CAA0BBB0BDC019927882760E08B
:1011200070E0842B952BA62BB72B80934E019093C8
:101130004F01A0935001B0935101B09B1BC040914F
:10114000840050918500C9010196092E000CAA0B5C
:10115000BB0BDC019927882760E070E0842B952B7E
:10116000A62BB72B80934E0190934F01A093500173
:10117000B0935101E091FC01F091FD01309739F0FD
:1011800067E070E0809164019091650109950E948B
:101190002F05FF91EF91BF91AF919F918F917F911B
:1011A0006F915F914F913F912F910F900FBE0F90D4
:1011B0001F9018951F920F920FB60F9211242F9324
:1011C0003F934F935F936F937F938F939F93AF93CF
:1011D000BF93EF93FF9320914C0130914D014091CB
:1011E000840050918500C901032E000CAA0BBB0B93
:1011F000DC019927882760E070E0842B952BA62BD3
:10120000B72B80934E0190934F01A0935001B09360
:101210005101B09B1BC04091840050918500C901D1
:101220000196092E000CAA0BBB0BDC01992788271D
:1012300060E070E0842B952BA62BB72B80934E019A
:1012400090934F01A0935001B0935101E091FE01A2
:10125000F091FF01309739F068E070E0809166010D
:101260009091670109950E942F05FF91EF91BF9121
:10127000AF919F918F917F916F915F914F913F912E
:101280002F910F900FBE0F901F9018951F920F92E5
:101290000FB60F9211242F933F934F935F936F9349
:1012A0007F938F939F93AF93BF93EF93FF9320917F
:1012B0004C0130914D014091840050918500C9014D
:1012C000032E000CAA0BBB0BDC019927882760E0DA
:1012D00070E0842B952BA62BB72B80934E01909317
:1012E0004F01A0935001B0935101B09B1BC040919E
:1012F000840050918500C9010196092E000CAA0BAB
:10130000BB0BDC019927882760E070E0842B952BCC
:10131000A62BB72B80934E0190934F01A0935001C1
:10132000B0935101E0910002F0910102309739F041
:1013300069E070E0809168019091690109950E94CF
:101340002F05FF91EF91BF91AF919F918F917F9169
:101350006F915F914F913F912F910F900FBE0F9022
:101360001F9018951F920F920FB60F9211242F9372
:101370003F934F935F936F937F938F939F93AF931D
:10138000BF93EF93FF9320914C0130914D01409119
:10139000840050918500C901032E000CAA0BBB0BE1
:1013A000DC019927882760E070E0842B952BA62B21
:1013B000B72B80934E0190934F01A0935001B093AF
:1013C0005101B09B1BC04091840050918500C90120
:1013D0000196092E000CAA0BBB0BDC01992788276C
:1013E00060E070E0842B952BA62BB72B80934E01E9
:1013F00090934F01A0935001B0935101E0910202EC
:10140000F0910302309739F06AE070E080916A0150
:1014100090916B0109950E942F05FF91EF91BF916B
:10142000AF919F918F917F916F915F914F913F917C
:101430002F910F900FBE0F901F9018951F920F9233
:101440000FB60F9211242F933F934F935F936F9397
:101450007F938F939F93AF93BF93EF93FF932091CD
:101460004C0130914D014091840050918500C9019B
:10147000032E000CAA0BBB0BDC019927882760E028
:1014800070E0842B952BA62BB72B80934E01909365
:101490004F01A0935001B0935101B09B1BC04091EC
:1014A000840050918500C9010196092E000CAA0BF9
:1014B000BB0BDC019927882760E070E0842B952B1B
:1014C000A62BB72B80934E0190934F01A093500110
:1014D000B0935101E0910402F0910502309739F088
:1014E0006BE070E080916C0190916D0109950E9414
:1014F0002F05FF91EF91BF91AF919F918F917F91B8
:101500006F915F914F913F912F910F900FBE0F9070
:101510001F9018951F920F920FB60F9211242F93C0
:101520003F934F935F936F937F938F939F93AF936B
:10153000BF93EF93FF9320914C0130914D01409167
:10154000840050918500C901032E000CAA0BBB0B2F
:10155000DC019927882760E070E0842B952BA62B6F
:10156000B72B80934E0190934F01A0935001B093FD
:101570005101B09B1BC04091840050918500C9016E
:101580000196092E000CAA0BBB0BDC0199278827BA
:1015900060E070E0842B952BA62BB72B80934E0137
:1015A00090934F01A0935001B0935101E091060236
:1015B000F0910702309739F06CE070E080916E0195
:1015C00090916F0109950E942F05FF91EF91BF91B6
:1015D000AF919F918F917F916F915F914F913F91CB
:1015E0002F910F900FBE0F901F9018951F920F9282
:1015F0000FB60F9211242F933F934F935F936F93E6
:101600007F938F939F93AF93BF93EF93FF9320911B
:101610004C0130914D014091840050918500C901E9
:10162000032E000CAA0BBB0BDC019927882760E076
:1016300070E0842B952BA62BB72B80934E019093B3
:101640004F01A0935001B0935101B09B1BC040913A
:10165000840050918500C9010196092E000CAA0B47
:10166000BB0BDC019927882760E070E0842B952B69
:10167000A62BB72B80934E0190934F01A09350015E
:10168000B0935101E0910802F0910902309739F0CE
:101690006DE070E0809170019091710109950E9458
:1016A0002F05FF91EF91BF91AF919F918F917F9106
:1016B0006F915F914F913F912F910F900FBE0F90BF
:1016C0001F9018951F920F920FB60F9211242F930F
:1016D0003F934F935F936F937F938F939F93AF93BA
:1016E000BF93EF93FF9320914C0130914D014091B6
:1016F000840050918500C901032E000CAA0BBB0B7E
:10170000DC019927882760E070E0842B952BA62BBD
:10171000B72B80934E0190934F01A0935001B0934B
:101720005101B09B1BC04091840050918500C901BC
:101730000196092E000CAA0BBB0BDC019927882708
:1017400060E070E0842B952BA62BB72B80934E0185
:1017500090934F01A0935001B0935101E0910A0280
:10176000F0910B02309739F06EE070E080917201D9
:101770009091730109950E942F05FF91EF91BF9100
:10178000AF919F918F917F916F915F914F913F9119
:101790002F910F900FBE0F901F9018951F920F92D0
:1017A0000FB60F9211242F933F934F935F936F9334
:1017B0007F938F939F93AF93BF93EF93FF9320916A
:1017C0004C0130914D014091840050918500C90138
:1017D000032E000CAA0BBB0BDC019927882760E0C5
:1017E00070E0842B952BA62BB72B80934E01909302
:1017F0004F01A0935001B0935101B09B1BC0409189
:10180000840050918500C9010196092E000CAA0B95
:10181000BB0BDC019927882760E070E0842B952BB7
:10182000A62BB72B80934E0190934F01A0935001AC
:10183000B0935101E0910C02F0910D02309739F014
:101840006FE070E0809174019091750109950E949C
:101850002F05FF91EF91BF91AF919F918F917F9154
:101860006F915F914F913F912F910F900FBE0F900D
:101870001F9018951F920F920FB60F9211242F935D
:101880003F934F935F936F937F938F939F93AF9308
:10189000BF93EF93FF9320914C0130914D01409104
:1018A000840050918500C901032E000CAA0BBB0BCC
:1018B000DC019927882760E070E0842B952BA62B0C
:1018C000B72B80934E0190934F01A0935001B0939A
:1018D0005101B09B1BC04091840050918500C9010B
:1018E0000196092E000CAA0BBB0BDC019927882757
:1018F00060E070E0842B952BA62BB72B80934E01D4
:1019000090934F01A0935001B0935101E0910E02CA
:10191000F0910F02309739F060E170E0809176012C
:101920009091770109950E942F05FF91EF91BF914A
:10193000AF919F918F917F916F915F914F913F9167
:101940002F910F900FBE0F901F9018951F920F921E
:101950000FB60F9211242F933F934F935F936F9382
:101960007F938F939F93AF93BF93EF93FF932091B8
:101970004C0130914D014091840050918500C90186
:10198000032E000CAA0BBB0BDC019927882760E013
:1019900070E0842B952BA62BB72B80934E01909350
:1019A0004F01A0935001B0935101B09B1BC04091D7
:1019B000840050918500C9010196092E000CAA0BE4
:1019C000BB0BDC019927882760E070E0842B952B06
:1019D000A62BB72B80934E0190934F01A0935001FB
:1019E000B0935101E0911002F0911102309739F05B
:1019F00061E170E0809178019091790109950E94F0
:101A00002F05FF91EF91BF91AF919F918F917F91A2
:101A10006F915F914F913F912F910F900FBE0F905B
:101A20001F9018951F920F920FB60F9211242F93AB
:101A30003F934F935F936F937F938F939F93EF9316
:101A4000FF9380914C0190914D01019690934D012F
:101A500080934C01E0915201F0915301309739F09D
:101A6000428153816481758186179707A1F0809127
:101A70006F008D7F80936F00FF91EF919F918F9109
:101A80007F916F915F914F913F912F910F900FBE7A
:101A90000F901F901895CA01209184003091850005
:101AA000421B530B4130510551F0909389008093B4
:101AB000880080916F00826080936F00DDCF8091FD
:101AC0008400909185000196F0CF1F920F920FB67F
:101AD0000F9211248F929F92AF92BF92CF92DF927A
:101AE000EF92FF920F931F932F933F934F935F9328
:101AF0006F937F938F939F93AF93BF93CF93DF9316
:101B0000EF93FF93E0904C01F0904D0180918400A1
:101B100090918500B09998C047010F2C000CAA083D
:101B2000BB08540199248824A0E0B0E0882A992AAF
:101B3000AA2ABB2AC0915201D0915301809154012D
:101B400090915501209709F43FC04A815B816C81D7
:101B50007D818A019B01081919092A093B09101680
:101B60001106120613060CF440C0D880C9800097F5
:101B7000B9F10E811F8128853985FC014681578185
:101B80006085718504171507260737074CF1DC01BE
:101B90000AC046815781608571850417150726079D
:101BA0003707DCF0DF01ED91FC911197309789F751
:101BB00019821882CD93DC93382F292FCD2DDC2D5F
:101BC000832F922F209709F6109253011092520101
:101BD000909355018093540113C0F983E883EACFB1
:101BE000998388833C2F2D2FE9CFD0935301C09345
:101BF00052019093550180935401E616F706D9F1EE
:101C000080916F008D7F80936F000E942F05FF9160
:101C1000EF91DF91CF91BF91AF919F918F917F9184
:101C20006F915F914F913F912F911F910F91FF9075
:101C3000EF90DF90CF90BF90AF909F908F900F90DC
:101C40000FBE0F901F901895209184003091850051
:101C500047018FEF881A980A092C000CAA08BB08C4
:101C6000D401992788274901A12CB12C882A992AC7
:101C7000AA2ABB2A5FCFCA01209184003091850037
:101C8000421B530B4130510551F0909389008093D2
:101C9000880080916F00826080936F00B6CF809142
:101CA0008400909185000196F0CF3F924F925F9211
:101CB0006F927F928F929F92AF92BF92CF92DF925C
:101CC000EF92FF920F931F93CF93DF93EFB7E078DC
:101CD0003E2EF894C0913A01D0913B01209709F42F
:101CE00052C1E881F981F0933B01E0933A011B87EF
:101CF0000A87FD86EC86DF86CE86332009F46FC026
:101D0000E0913401F09135010280F381E02DC28031
:101D1000D380E480F580C60ED71EE81EF91ECA8265
:101D2000DB82EC82FD8212161306140615060CF0F7
:101D3000F8C0DA01C9018C019D010C0D1D1D2E1D7D
:101D40003F1D0E831F832887398780914C01909116
:101D50004D016091840070918500B09949C02C01BB
:101D6000092E000C660877085201992488242B015B
:101D7000612C712C482859286A287B28B701A601B4
:101D8000441955096609770914161506160617062B
:101D90000CF068C0A0915201B0915301109709F462
:101DA000DCC012960D911D912D913C911597C01696
:101DB000D106E206F3065CF4D0C04281538164810F
:101DC0007581C416D506E606F7064CF1DF01ED91E4
:101DD000FC911197309789F71982188222C0C09020
:101DE0004E01D0904F01E0905001F090510193CFFF
:101DF000E0918400F09185002C014FEF441A540AC1
:101E0000052C000C66087708B201552744272F01DE
:101E1000612C712C442A552A662A772AAFCFF98380
:101E2000E883CD93DC938217930709F47FC08091F8
:101E30006F008D7F80936F00332009F07894CE017E
:101E4000DF91CF911F910F91FF90EF90DF90CF9096
:101E5000BF90AF909F908F907F906F905F904F90CA
:101E60003F900895A0915401B0915501109709F445
:101E700083C01696CD90DD90ED90FC9019970C15CF
:101E80001D052E053F0564F477C0C680D780E08429
:101E9000F1840C151D052E053F050CF45BC0DF0118
:101EA000ED91FC911197309781F719821882CD93AB
:101EB000DC93332021F28091380190913901009711
:101EC00009F4BCCFE0913601F09137012091540123
:101ED0003091550102811381D90116964D915D9182
:101EE0006D917C911997D80116960D911D912D91A8
:101EF0003C911997401B510B620B730B77FF9ECFE0
:101F0000DC012D913C9111973093390120933801D8
:101F1000ED93FC9390933701809336010E940F0557
:101F20008DCF8FEF9FEFAFEFBFE705CFC801409197
:101F3000840050918500041B150B01301105B1F090
:101F4000909389008093880080916F0082608093D5
:101F50006F0072CFF983E883AACFB983A883D093A7
:101F60005301C0935201970186015DCF8091840097
:101F7000909185000196E4CFB983A883D093550151
:101F8000C093540196CF0E946F05CF92DF92EF92DB
:101F9000FF920F931F93CF93DF93EC017B016A01B4
:101FA0001FB71078F894A881B981109719F462C00E
:101FB000A081B1811496ED91FC9115973097C1F7EE
:101FC00020913401309135012A173B0709F44CC0A8
:101FD0001123A1F18A819B81009719F0FC011582E0
:101FE00014823B832A83F901D583C483CD010E94E7
:101FF0000F05E0913401F091350182819381892BA5
:1020000009F441C0F983E8838A819B81019709F033
:102010007894B601CE01F7010995F82E092F8FB7F4
:10202000F894198218828A819B8182309105A0F4EC
:10203000112379F078948F2D902F02C08FEF9FEFAE
:10204000DF91CF911F910F91FF90EF90DF90CF9094
:1020500008958F2D902FF4CF1B821A82FC011582D8
:1020600014820E940F05E4CF112341F378948FEF7F
:102070009FEFE6CF80913401909135019983888359
:10208000112339F2C1CF789480E090E0D9CFC0918C
:102090005401D0915501E0913401F0913501209720
:1020A00009F46EC088819981909355018093540101
:1020B000D383C28378944E855F856C857D858A85C0
:1020C0009B850E94C50F8FB7F89480913A0190913B
:1020D0003B0199838883D0933B01C0933A01E09000
:1020E0003601F0903701F701A081B18112968D91F0
:1020F0009C911397C0915401D09155012097A9F05C
:10210000009749F24E815F8168857985FC010681DF
:10211000178120853185401B510B620B730B141600
:102120001506160617060CF0B6CFB0933701A0932C
:1021300036018091380190913901F70191838083B4
:10214000F0923901E09238011496ED91FC911597C7
:10215000309741F0A081B1811496ED91FC911597D3
:102160003097C1F7CD010E940F05C0915401D09165
:102170005501E0913401F0913501209709F092CF9B
:102180000E946F054231B8F42FB7F89450E0440F25
:10219000551FFA01EA5AFE4F91838083FA01E251FA
:1021A000FE4F7183608341E050E0FC015383428322
:1021B00027FF01C0789408958C017B016A018FB7D5
:1021C000F8940E94A4047894E114F10441F020E012
:1021D00030E0A90160E070E0CB010E94550E8FB79E
:1021E000F8940E942F05789481E083BF8895FDCFF5
:1021F000CF92DF92EF92FF920F931F93CF93DF93D3
:10220000EC018E819F81009709F440C081309105D7
:1022100009F121E030E0892B11F020E030E03F832C
:102220002E83C12CD12C88EFE82E80E1F82E8E0170
:1022300020E030E0A9016AEE72E386E090E00E94BF
:10224000550EDF91CF911F910F91FF90EF90DF908E
:10225000CF90089540E050E06BE374E08C819D8165
:102260000E94C50F0C811D81C12CD12C9EE5E92E49
:1022700094E0F92E20E030E0A9016AE572E682E000
:1022800090E00E94550E8E819F81C3CF40E050E0C8
:1022900061E874E08C819D810E94C50F0C811D81D5
:1022A000C12CD12C28E1E22E24E0F22E20E030E0F7
:1022B000A9016AE572E682E090E00E94550E8E81E7
:1022C0009F81A7CF97FB072E16F4009407D077FDC8
:1022D00009D00E947C1107FC05D03EF490958195B1
:1022E0009F4F0895709561957F4F0895EE0FFF1FE2
:1022F0000590F491E02D0994AA1BBB1B51E107C086
:10230000AA1FBB1FA617B70710F0A61BB70B881F85
:10231000991F5A95A9F780959095BC01CD01089514
:10232000DC012D923D924D925D926D927D928D9247
:102330009D92AD92BD92CD92DD92ED92FD920D9364
:102340001D93CD93DD93FF91EF918DB78D938EB754
:102350008D938FB78D93ED93FD93882799270994DB
:10236000DC01CB0181309105811D2D903D904D9078
:102370005D906D907D908D909D90AD90BD90CD9035
:10238000DD90ED90FD900D911D91CD91DD91ED9140
:10239000FD910D90F894FEBF0FBEEDBFED91FD9144
:0623A0000994F894FFCF40
:1023A600000000003C01000000000000480114018C
:1023B60020012C01000000002C0148010000010052
:1023C600000000002C014801000000000000000091
:0C23D60048010000120212027A012F02DE
:00000001FF
