:100000000C9438000C94F9030C9465040C94D104FE
:100010000C943D050C94A9050C9455000C94E40B2C
:100020000C9455000C94910B0C9415060C948106BD
:100030000C94ED060C9459070C94C5070C943108E8
:100040000C949D080C9409090C9475090C94E10911
:100050000C944D0A0C94B90A0C94250B1201320130
:1000600041016E019301B501DC011202D700960037
:1000700011241FBECFEFD4E0DEBFCDBF11E0A0E062
:10008000B1E0E0EDFFE102C005900D92A830B107AC
:10009000D9F724E0A8E0B1E001C01D92AB35B2076A
:1000A000E1F70E94FC020C94E60F0C940000EF9222
:1000B000FF920F931F93CF93DF93E82FDB0177FD20
:1000C00074C0B595A7956170707877FD67C0660FAD
:1000D000771F660F771FAD0144515F4FEA0188819A
:1000E00020EF30E0062E02C0359527950A94E2F7FE
:1000F000822388837D01D1EFED0EF11CE701888119
:10010000822388832596888182238883A550BF4FC8
:100110008C9128232C930E2F10E0F801F097EA30F1
:10012000F105A8F5E25DFF4F0C948B0FDA01EC911D
:1001300081E090E09C01062E01C0220F0A94EAF7AC
:100140003E2F320F3C93F7014081FB0132968C0128
:1001500002C0000F111FEA95E2F7322F302B340F47
:10016000D7013C933881AB014F5F5F4FFC0102C068
:10017000EE0FFF1F4A95E2F7AF016D5F7F4F01C0A1
:10018000880F6A95EAF7842B822B830F8883DF918F
:10019000CF911F910F91FF90EF90089561507109D9
:1001A0006E6F7F6F6F5F7F4F92CF11968ACFFA018C
:1001B000108181E090E09C01062E01C0220F0A947C
:1001C000EAF7312F320F3083F7013081AB014E5FF8
:1001D0005F4F8C0101C0000F4A95EAF7402F422B78
:1001E000340F30833881AB014F5F5F4FFC0102C099
:1001F000EE0FFF1F4A95E2F7AF01402B422B6D5FD8
:100200007F4F01C0880F6A95EAF7842B830F88839C
:100210008C91280F2C93DF91CF911F910F91FF901C
:10022000EF900895FA01108181E090E09C01062E84
:1002300001C0220F0A94EAF7312F320F3083F70101
:1002400030816E5F7F4F01C0880F6A95EAF7822B7D
:10025000932F980F90839881890F88838C91280F12
:100260002C9395CFD7012C9181E090E001C0880FAD
:100270006A95EAF7922F980F9C939881890F88834B
:1002800086CFFA01108181E090E09C01062E01C02A
:10029000220F0A94EAF7312F320F3083F7013081B1
:1002A000320F30833881AB014F5F5F4FFC01042E6A
:1002B00001C0EE0F0A94EAF74F5F5F4F8C0102C056
:1002C000000F111F4A95E2F7A8014E2B6D5F7F4F7B
:1002D00001C0880F6A95EAF7842B98CFFA01108144
:1002E00081E090E09C01062E01C0220F0A94EAF7FB
:1002F000312F320F3083F7013081320F3083388154
:10030000AB014F5F5F4F8C0102C0000F111F4A9578
:10031000E2F7A8016D5F7F4F01C0880F6A95EAF789
:10032000842B822B73CFD7014C9181E090E09C010C
:10033000062E01C0220F0A94EAF7FB0132968C01C7
:1003400002C0000F111FEA95E2F7322F302B340F55
:100350003C933881AB014F5F5F4FDC0102C0AA0FB5
:10036000BB1F4A95E2F7AD0108CFFA01108181E089
:1003700090E09C01062E01C0220F0A94EAF7312F6B
:10038000320F3083F7013081AB014E5F5F4F8C013C
:1003900002C0000F111F4A95E2F7A801430F4083E6
:1003A0003881AB014F5F5F4FFC0102C0EE0FFF1FB2
:1003B0004A95E2F7AF01AECFFA01208181E090E0EB
:1003C0008C01062E01C0000F0A94EAF7200F20834B
:1003D000F70140819B012E5F3F4FFC0102C0EE0FF1
:1003E000FF1F2A95E2F79F01342F320FF701308368
:1003F0003881AB014F5F5F4FFC0102C0EE0FFF1F62
:100400004A95E2F72E2B202B6D5F7F4F01C0880F9E
:100410006A95EAF7822B830F88838C91E02FE80F8F
:10042000EC93B5CEDA012C9181E090E001C0880F09
:100430006A95EAF7922F980F9C93F7019081980F95
:1004400090839881890F8883A2CEEF92FF920F93B9
:100450001F93CF93DF937B01FC01C481D581CC0F27
:10046000DD1FCC0FDD1FCB0164E670E00E94770F2B
:100470000AE010E0B8010E94770F862FBE01805D70
:100480000E9457002196C701B8010E94770FBE0154
:10049000805DDF91CF911F910F91FF90EF900C94B1
:1004A000570041E050E0FC0124813581232B11F0FD
:1004B00040E050E0FC015583448322E030E0241BFF
:1004C000350B81E090E001C0880F2A95EAF7809310
:1004D000ED000895E1E6F0E080E88083108280EC92
:1004E0008093E40087E38093E50087E08093E60053
:1004F0008FE08093E7000895CF92DF92EF92FF9212
:100500000F931F93CF93DF93EC018FE1C82ED12C73
:1005100095E2E92E92E0F92E8E0120E030E0A9016B
:1005200068E371E080E090E00E94D40CC12CD12CF3
:1005300021E5E22E22E0F22E20E030E0A90164ED78
:1005400070E380E090E00E94D40C39E2C32ED12CFD
:1005500045E2E42E42E0F42E20E030E0A90162E121
:100560007AE780E090E00E94D40CC12CD12C51E5B8
:10057000E52E52E0F52E20E030E0A90166EE7AEAA1
:1005800080E090E00E94D40C6BE3C62ED12C75E283
:10059000E72E72E0F72E20E030E0A90164E274EF6C
:1005A00080E090E00E94D40CC12CD12CE1E5EE2E2D
:1005B000E2E0FE2E20E030E0A90168EF74E281E085
:1005C00090E00E94D40CFAE1CF2ED12CA5E2EA2EC5
:1005D000A2E0FA2E20E030E0A90166E37EE681E0A9
:1005E00090E00E94D40CDF91CF911F910F91FF906A
:1005F000EF90DF90CF900895CF93DF9300D000D09D
:1006000000D0CDB7DEB70E946A021A8219821C821E
:100610001B821E821D8242E061E572E0CE010196DE
:100620000E94410F40E050E06CE772E0CE0101967D
:100630000E945B0F26960FB6F894DEBF0FBECDBFAB
:10064000DF91CF910895CF93DF9300D000D0CDB745
:10065000DEB78BEF91E02BED32E0FC0170979183D8
:100660008083409682179307C1F71092CC021092B4
:10067000CB02E6E3F1E083E591E09183808380E7BC
:1006800091E0968F858FADE8B1E0B3AFA2AF1D9238
:100690001C92FA83E983E7E3F3E0FC83EB8389812F
:1006A0009A8106960E94A50F8B819C81E981FA812F
:1006B000978B868B918F808F86EC9EE0948F838FB3
:1006C000158214827D96FA83E983EB81FC81E05ADE
:1006D000FF4FFC83EB8389819A818A5A9140F9F616
:1006E000EEECF1E0118210821582148213821282E4
:1006F000E1E6F0E080E8808310821092850010929D
:10070000840084E08093810081E080936F000F90EB
:100710000F900F900F90DF91CF910895CF93DF93BB
:1007200000D0CDB7DEB79A83898380910001909184
:10073000010106960E94A50F892B29F00F900F90BA
:10074000DF91CF91089589819A81909301018093DF
:10075000000161E070E006960E94C50F0F931F93A1
:10076000CF93DF93E0911001F09111013097F1F0F8
:1007700080910401909105010097C1F0C0910201A0
:10078000D0910301AA81BB811097A9F046815781BE
:100790006085718516960D911D912D913C9119974B
:1007A000401B510B620B730B77FD05C0DF91CF919E
:1007B0001F910F910895FC01208131813093050133
:1007C00020930401D183C08390930301809302019D
:1007D000DF91CF911F910F910C948E038FEF809337
:1007E000EC008093ED008093EE0081E083BF88955C
:1007F000FDCF1F920F920FB60F9211242F933F93AC
:100800004F935F936F937F938F939F93AF93BF9318
:10081000EF93FF93209108013091090140918400EA
:1008200050918500C901032E000CAA0BBB0BDC0103
:100830009927882760E070E0842B952BA62BB72B97
:1008400080930A0190930B01A0930C01B0930D01CA
:10085000B09B1BC04091840050918500C901019656
:10086000092E000CAA0BBB0BDC019927882760E03E
:1008700070E0842B952BA62BB72B80930A019093C5
:100880000B01A0930C01B0930D01E091AA01F0912E
:10089000AB01309739F060E070E0809112019091E7
:1008A000130109950E94AE03FF91EF91BF91AF91A3
:1008B0009F918F917F916F915F914F913F912F9178
:1008C0000F900FBE0F901F9018951F920F920FB6AA
:1008D0000F9211242F933F934F935F936F937F93C6
:1008E0008F939F93AF93BF93EF93FF932091080152
:1008F000309109014091840050918500C901032E77
:10090000000CAA0BBB0BDC019927882760E070E084
:10091000842B952BA62BB72B80930A0190930B0168
:10092000A0930C01B0930D01B09B1BC040918400BB
:1009300050918500C9010196092E000CAA0BBB0B32
:10094000DC019927882760E070E0842B952BA62B8B
:10095000B72B80930A0190930B01A0930C01B093E5
:100960000D01E091AC01F091AD01309739F061E0FB
:1009700070E0809114019091150109950E94AE03D9
:10098000FF91EF91BF91AF919F918F917F916F9167
:100990005F914F913F912F910F900FBE0F901F903D
:1009A00018951F920F920FB60F9211242F933F9319
:1009B0004F935F936F937F938F939F93AF93BF9367
:1009C000EF93FF9320910801309109014091840039
:1009D00050918500C901032E000CAA0BBB0BDC0152
:1009E0009927882760E070E0842B952BA62BB72BE6
:1009F00080930A0190930B01A0930C01B0930D0119
:100A0000B09B1BC04091840050918500C9010196A4
:100A1000092E000CAA0BBB0BDC019927882760E08C
:100A200070E0842B952BA62BB72B80930A01909313
:100A30000B01A0930C01B0930D01E091AE01F09178
:100A4000AF01309739F062E070E08091160190912B
:100A5000170109950E94AE03FF91EF91BF91AF91ED
:100A60009F918F917F916F915F914F913F912F91C6
:100A70000F900FBE0F901F9018951F920F920FB6F8
:100A80000F9211242F933F934F935F936F937F9314
:100A90008F939F93AF93BF93EF93FF9320910801A0
:100AA000309109014091840050918500C901032EC5
:100AB000000CAA0BBB0BDC019927882760E070E0D3
:100AC000842B952BA62BB72B80930A0190930B01B7
:100AD000A0930C01B0930D01B09B1BC0409184000A
:100AE00050918500C9010196092E000CAA0BBB0B81
:100AF000DC019927882760E070E0842B952BA62BDA
:100B0000B72B80930A0190930B01A0930C01B09333
:100B10000D01E091B001F091B101309739F063E03F
:100B200070E0809118019091190109950E94AE031F
:100B3000FF91EF91BF91AF919F918F917F916F91B5
:100B40005F914F913F912F910F900FBE0F901F908B
:100B500018951F920F920FB60F9211242F933F9367
:100B60004F935F936F937F938F939F93AF93BF93B5
:100B7000EF93FF9320910801309109014091840087
:100B800050918500C901032E000CAA0BBB0BDC01A0
:100B90009927882760E070E0842B952BA62BB72B34
:100BA00080930A0190930B01A0930C01B0930D0167
:100BB000B09B1BC04091840050918500C9010196F3
:100BC000092E000CAA0BBB0BDC019927882760E0DB
:100BD00070E0842B952BA62BB72B80930A01909362
:100BE0000B01A0930C01B0930D01E091B201F091C3
:100BF000B301309739F064E070E080911A01909170
:100C00001B0109950E94AE03FF91EF91BF91AF9137
:100C10009F918F917F916F915F914F913F912F9114
:100C20000F900FBE0F901F9018951F920F920FB646
:100C30000F9211242F933F934F935F936F937F9362
:100C40008F939F93AF93BF93EF93FF9320910801EE
:100C5000309109014091840050918500C901032E13
:100C6000000CAA0BBB0BDC019927882760E070E021
:100C7000842B952BA62BB72B80930A0190930B0105
:100C8000A0930C01B0930D01B09B1BC04091840058
:100C900050918500C9010196092E000CAA0BBB0BCF
:100CA000DC019927882760E070E0842B952BA62B28
:100CB000B72B80930A0190930B01A0930C01B09382
:100CC0000D01E091B401F091B501309739F065E084
:100CD00070E080911C0190911D0109950E94AE0366
:100CE000FF91EF91BF91AF919F918F917F916F9104
:100CF0005F914F913F912F910F900FBE0F901F90DA
:100D000018951F920F920FB60F9211242F933F93B5
:100D10004F935F936F937F938F939F93AF93BF9303
:100D2000EF93FF93209108013091090140918400D5
:100D300050918500C901032E000CAA0BBB0BDC01EE
:100D40009927882760E070E0842B952BA62BB72B82
:100D500080930A0190930B01A0930C01B0930D01B5
:100D6000B09B1BC04091840050918500C901019641
:100D7000092E000CAA0BBB0BDC019927882760E029
:100D800070E0842B952BA62BB72B80930A019093B0
:100D90000B01A0930C01B0930D01E091B601F0910D
:100DA000B701309739F066E070E080911E019091B4
:100DB0001F0109950E94AE03FF91EF91BF91AF9182
:100DC0009F918F917F916F915F914F913F912F9163
:100DD0000F900FBE0F901F9018951F920F920FB695
:100DE0000F9211242F933F934F935F936F937F93B1
:100DF0008F939F93AF93BF93EF93FF93209108013D
:100E0000309109014091840050918500C901032E61
:100E1000000CAA0BBB0BDC019927882760E070E06F
:100E2000842B952BA62BB72B80930A0190930B0153
:100E3000A0930C01B0930D01B09B1BC040918400A6
:100E400050918500C9010196092E000CAA0BBB0B1D
:100E5000DC019927882760E070E0842B952BA62B76
:100E6000B72B80930A0190930B01A0930C01B093D0
:100E70000D01E091B801F091B901309739F067E0C8
:100E800070E0809120019091210109950E94AE03AC
:100E9000FF91EF91BF91AF919F918F917F916F9152
:100EA0005F914F913F912F910F900FBE0F901F9028
:100EB00018951F920F920FB60F9211242F933F9304
:100EC0004F935F936F937F938F939F93AF93BF9352
:100ED000EF93FF9320910801309109014091840024
:100EE00050918500C901032E000CAA0BBB0BDC013D
:100EF0009927882760E070E0842B952BA62BB72BD1
:100F000080930A0190930B01A0930C01B0930D0103
:100F1000B09B1BC04091840050918500C90101968F
:100F2000092E000CAA0BBB0BDC019927882760E077
:100F300070E0842B952BA62BB72B80930A019093FE
:100F40000B01A0930C01B0930D01E091BA01F09157
:100F5000BB01309739F068E070E0809122019091F8
:100F6000230109950E94AE03FF91EF91BF91AF91CC
:100F70009F918F917F916F915F914F913F912F91B1
:100F80000F900FBE0F901F9018951F920F920FB6E3
:100F90000F9211242F933F934F935F936F937F93FF
:100FA0008F939F93AF93BF93EF93FF93209108018B
:100FB000309109014091840050918500C901032EB0
:100FC000000CAA0BBB0BDC019927882760E070E0BE
:100FD000842B952BA62BB72B80930A0190930B01A2
:100FE000A0930C01B0930D01B09B1BC040918400F5
:100FF00050918500C9010196092E000CAA0BBB0B6C
:10100000DC019927882760E070E0842B952BA62BC4
:10101000B72B80930A0190930B01A0930C01B0931E
:101020000D01E091BC01F091BD01309739F069E00C
:1010300070E0809124019091250109950E94AE03F2
:10104000FF91EF91BF91AF919F918F917F916F91A0
:101050005F914F913F912F910F900FBE0F901F9076
:1010600018951F920F920FB60F9211242F933F9352
:101070004F935F936F937F938F939F93AF93BF93A0
:10108000EF93FF9320910801309109014091840072
:1010900050918500C901032E000CAA0BBB0BDC018B
:1010A0009927882760E070E0842B952BA62BB72B1F
:1010B00080930A0190930B01A0930C01B0930D0152
:1010C000B09B1BC04091840050918500C9010196DE
:1010D000092E000CAA0BBB0BDC019927882760E0C6
:1010E00070E0842B952BA62BB72B80930A0190934D
:1010F0000B01A0930C01B0930D01E091BE01F091A2
:10110000BF01309739F06AE070E08091260190913C
:10111000270109950E94AE03FF91EF91BF91AF9116
:101120009F918F917F916F915F914F913F912F91FF
:101130000F900FBE0F901F9018951F920F920FB631
:101140000F9211242F933F934F935F936F937F934D
:101150008F939F93AF93BF93EF93FF9320910801D9
:10116000309109014091840050918500C901032EFE
:10117000000CAA0BBB0BDC019927882760E070E00C
:10118000842B952BA62BB72B80930A0190930B01F0
:10119000A0930C01B0930D01B09B1BC04091840043
:1011A00050918500C9010196092E000CAA0BBB0BBA
:1011B000DC019927882760E070E0842B952BA62B13
:1011C000B72B80930A0190930B01A0930C01B0936D
:1011D0000D01E091C001F091C101309739F06BE051
:1011E00070E0809128019091290109950E94AE0339
:1011F000FF91EF91BF91AF919F918F917F916F91EF
:101200005F914F913F912F910F900FBE0F901F90C4
:1012100018951F920F920FB60F9211242F933F93A0
:101220004F935F936F937F938F939F93AF93BF93EE
:10123000EF93FF93209108013091090140918400C0
:1012400050918500C901032E000CAA0BBB0BDC01D9
:101250009927882760E070E0842B952BA62BB72B6D
:1012600080930A0190930B01A0930C01B0930D01A0
:10127000B09B1BC04091840050918500C90101962C
:10128000092E000CAA0BBB0BDC019927882760E014
:1012900070E0842B952BA62BB72B80930A0190939B
:1012A0000B01A0930C01B0930D01E091C201F091EC
:1012B000C301309739F06CE070E080912A01909181
:1012C0002B0109950E94AE03FF91EF91BF91AF9161
:1012D0009F918F917F916F915F914F913F912F914E
:1012E0000F900FBE0F901F9018951F920F920FB680
:1012F0000F9211242F933F934F935F936F937F939C
:101300008F939F93AF93BF93EF93FF932091080127
:10131000309109014091840050918500C901032E4C
:10132000000CAA0BBB0BDC019927882760E070E05A
:10133000842B952BA62BB72B80930A0190930B013E
:10134000A0930C01B0930D01B09B1BC04091840091
:1013500050918500C9010196092E000CAA0BBB0B08
:10136000DC019927882760E070E0842B952BA62B61
:10137000B72B80930A0190930B01A0930C01B093BB
:101380000D01E091C401F091C501309739F06DE095
:1013900070E080912C0190912D0109950E94AE037F
:1013A000FF91EF91BF91AF919F918F917F916F913D
:1013B0005F914F913F912F910F900FBE0F901F9013
:1013C00018951F920F920FB60F9211242F933F93EF
:1013D0004F935F936F937F938F939F93AF93BF933D
:1013E000EF93FF932091080130910901409184000F
:1013F00050918500C901032E000CAA0BBB0BDC0128
:101400009927882760E070E0842B952BA62BB72BBB
:1014100080930A0190930B01A0930C01B0930D01EE
:10142000B09B1BC04091840050918500C90101967A
:10143000092E000CAA0BBB0BDC019927882760E062
:1014400070E0842B952BA62BB72B80930A019093E9
:101450000B01A0930C01B0930D01E091C601F09136
:10146000C701309739F06EE070E080912E019091C5
:101470002F0109950E94AE03FF91EF91BF91AF91AB
:101480009F918F917F916F915F914F913F912F919C
:101490000F900FBE0F901F9018951F920F920FB6CE
:1014A0000F9211242F933F934F935F936F937F93EA
:1014B0008F939F93AF93BF93EF93FF932091080176
:1014C000309109014091840050918500C901032E9B
:1014D000000CAA0BBB0BDC019927882760E070E0A9
:1014E000842B952BA62BB72B80930A0190930B018D
:1014F000A0930C01B0930D01B09B1BC040918400E0
:1015000050918500C9010196092E000CAA0BBB0B56
:10151000DC019927882760E070E0842B952BA62BAF
:10152000B72B80930A0190930B01A0930C01B09309
:101530000D01E091C801F091C901309739F06FE0D9
:1015400070E0809130019091310109950E94AE03C5
:10155000FF91EF91BF91AF919F918F917F916F918B
:101560005F914F913F912F910F900FBE0F901F9061
:1015700018951F920F920FB60F9211242F933F933D
:101580004F935F936F937F938F939F93AF93BF938B
:10159000EF93FF932091080130910901409184005D
:1015A00050918500C901032E000CAA0BBB0BDC0176
:1015B0009927882760E070E0842B952BA62BB72B0A
:1015C00080930A0190930B01A0930C01B0930D013D
:1015D000B09B1BC04091840050918500C9010196C9
:1015E000092E000CAA0BBB0BDC019927882760E0B1
:1015F00070E0842B952BA62BB72B80930A01909338
:101600000B01A0930C01B0930D01E091CA01F09180
:10161000CB01309739F060E170E080913201909118
:10162000330109950E94AE03FF91EF91BF91AF91F5
:101630009F918F917F916F915F914F913F912F91EA
:101640000F900FBE0F901F9018951F920F920FB61C
:101650000F9211242F933F934F935F936F937F9338
:101660008F939F93AF93BF93EF93FF9320910801C4
:10167000309109014091840050918500C901032EE9
:10168000000CAA0BBB0BDC019927882760E070E0F7
:10169000842B952BA62BB72B80930A0190930B01DB
:1016A000A0930C01B0930D01B09B1BC0409184002E
:1016B00050918500C9010196092E000CAA0BBB0BA5
:1016C000DC019927882760E070E0842B952BA62BFE
:1016D000B72B80930A0190930B01A0930C01B09358
:1016E0000D01E091CC01F091CD01309739F061E12D
:1016F00070E0809134019091350109950E94AE030C
:10170000FF91EF91BF91AF919F918F917F916F91D9
:101710005F914F913F912F910F900FBE0F901F90AF
:1017200018951F920F920FB60F9211242F933F938B
:101730004F935F936F937F938F939F93EF93FF9359
:10174000809108019091090101969093090180937D
:101750000801E0910E01F0910F01309739F04281BC
:1017600053816481758186179707A1F080916F007E
:101770008D7F80936F00FF91EF919F918F917F916B
:101780006F915F914F913F912F910F900FBE0F90EE
:101790001F901895CA012091840030918500421B4A
:1017A000530B4130510551F090938900809388008C
:1017B00080916F00826080936F00DDCF8091840004
:1017C000909185000196F0CF1F920F920FB60F9265
:1017D00011248F929F92AF92BF92CF92DF92EF929D
:1017E000FF920F931F932F933F934F935F936F93AA
:1017F0007F938F939F93AF93BF93CF93DF93EF9399
:10180000FF93E0900801F09009018091840090918D
:101810008500B09998C047010F2C000CAA08BB089E
:10182000540199248824A0E0B0E0882A992AAA2AA1
:10183000BB2AC0910E01D0910F01809110019091AF
:101840001101209709F43FC04A815B816C817D8141
:101850008A019B01081919092A093B09101611066A
:10186000120613060CF440C0D880C9800097B9F165
:101870000E811F8128853985FC014681578160854D
:10188000718504171507260737074CF1DC010AC0DC
:10189000468157816085718504171507260737072C
:1018A000DCF0DF01ED91FC911197309789F71982F7
:1018B0001882CD93DC93382F292FCD2DDC2D832F4B
:1018C000922F209709F610920F0110920E0190931B
:1018D00011018093100113C0F983E883EACF998343
:1018E00088833C2F2D2FE9CFD0930F01C0930E0199
:1018F0009093110180931001E616F706D9F18091BB
:101900006F008D7F80936F000E94AE03FF91EF9177
:10191000DF91CF91BF91AF919F918F917F916F9107
:101920005F914F913F912F911F910F91FF90EF90F9
:10193000DF90CF90BF90AF909F908F900F900FBE91
:101940000F901F90189520918400309185004701D9
:101950008FEF881A980A092C000CAA08BB08D4013A
:10196000992788274901A12CB12C882A992AAA2ACB
:10197000BB2A5FCFCA012091840030918500421BB1
:10198000530B4130510551F09093890080938800AA
:1019900080916F00826080936F00B6CF8091840049
:1019A000909185000196F0CF3F924F925F926F9297
:1019B0007F928F929F92AF92BF92CF92DF92EF92DF
:1019C000FF920F931F93CF93DF93EFB7E0783E2EF4
:1019D000F894C0910601D0910701209709F452C1F3
:1019E000E881F981F0930701E09306011B870A87DC
:1019F000FD86EC86DF86CE86332009F46FC0E09149
:101A00000001F09101010280F381E02DC280D380BA
:101A1000E480F580C60ED71EE81EF91ECA82DB825E
:101A2000EC82FD8212161306140615060CF0F8C09F
:101A3000DA01C9018C019D010C0D1D1D2E1D3F1DDC
:101A40000E831F83288739878091080190910901AF
:101A50006091840070918500B09949C02C01092ED5
:101A6000000C660877085201992488242B01612C08
:101A7000712C482859286A287B28B701A6014419E7
:101A800055096609770914161506160617060CF08F
:101A900068C0A0910E01B0910F01109709F4DCC04D
:101AA00012960D911D912D913C911597C016D1065E
:101AB000E206F3065CF4D0C04281538164817581F3
:101AC000C416D506E606F7064CF1DF01ED91FC9150
:101AD0001197309789F71982188222C0C0900A01A5
:101AE000D0900B01E0900C01F0900D0193CFE091AC
:101AF0008400F09185002C014FEF441A540A052C04
:101B0000000C66087708B201552744272F01612C85
:101B1000712C442A552A662A772AAFCFF983E883A5
:101B2000CD93DC938217930709F47FC080916F00F7
:101B30008D7F80936F00332009F07894CE01DF9180
:101B4000CF911F910F91FF90EF90DF90CF90BF90BA
:101B5000AF909F908F907F906F905F904F903F904D
:101B60000895A0911001B0911101109709F483C05C
:101B70001696CD90DD90ED90FC9019970C151D05F3
:101B80002E053F0564F477C0C680D780E084F184D9
:101B90000C151D052E053F050CF45BC0DF01ED9112
:101BA000FC911197309781F719821882CD93DC93BD
:101BB000332021F28091040190910501009709F4EE
:101BC000BCCFE0910201F09103012091100130910E
:101BD000110102811381D90116964D915D916D918C
:101BE0007C911997D80116960D911D912D913C91DC
:101BF0001997401B510B620B730B77FF9ECFDC01D3
:101C00002D913C9111973093050120930401ED93A0
:101C1000FC9390930301809302010E948E038DCF69
:101C20008FEF9FEFAFEFBFE705CFC8014091840072
:101C300050918500041B150B01301105B1F09093F4
:101C400089008093880080916F00826080936F008C
:101C500072CFF983E883AACFB983A883D0930F0109
:101C6000C0930E01970186015DCF80918400909111
:101C700085000196E4CFB983A883D0931101C09366
:101C8000100196CF0E94EE03CF92DF92EF92FF9267
:101C90000F931F93CF93DF93EC017B016A011FB772
:101CA0001078F894A881B981109719F462C0A081C6
:101CB000B1811496ED91FC9115973097C1F7209161
:101CC0000001309101012A173B0709F44CC0112390
:101CD000A1F18A819B81009719F0FC011582148281
:101CE0003B832A83F901D583C483CD010E948E03EF
:101CF000E0910001F091010182819381892B09F427
:101D000041C0F983E8838A819B81019709F0789427
:101D1000B601CE01F7010995F82E092F8FB7F89477
:101D2000198218828A819B8182309105A0F4112347
:101D300079F078948F2D902F02C08FEF9FEFDF9175
:101D4000CF911F910F91FF90EF90DF90CF9008956A
:101D50008F2D902FF4CF1B821A82FC0115821482E2
:101D60000E948E03E4CF112341F378948FEF9FEF0D
:101D7000E6CF80910001909101019983888311231E
:101D800039F2C1CF789480E090E0D9CFC0911001B2
:101D9000D0911101E0910001F0910101209709F427
:101DA0006EC0888199819093110180931001D38333
:101DB000C28378944E855F856C857D858A859B85F9
:101DC0000E94440E8FB7F89480910601909107010C
:101DD00099838883D0930701C0930601E0900201A4
:101DE000F0900301F701A081B18112968D919C9131
:101DF0001397C0911001D09111012097A9F000977D
:101E000049F24E815F8168857985FC0106811781E1
:101E100020853185401B510B620B730B1416150680
:101E2000160617060CF0B6CFB0930301A09302017B
:101E30008091040190910501F70191838083F092D4
:101E40000501E09204011496ED91FC9115973097ED
:101E500041F0A081B1811496ED91FC9115973097D6
:101E6000C1F7CD010E948E03C0911001D0911101E4
:101E7000E0910001F0910101209709F092CF0E94BA
:101E8000EE034231B8F42FB7F89450E0440F551FD9
:101E9000FA01EE5EFE4F91838083FA01E655FE4F14
:101EA0007183608341E050E0FC015383428327FF4C
:101EB00001C0789408958C017B016A018FB7F89472
:101EC0000E9423037894E114F10441F020E030E013
:101ED000A90160E070E0CB010E94D40C8FB7F894A8
:101EE0000E94AE03789481E083BF8895FDCF97FB75
:101EF000072E16F4009407D077FD09D00E94910FA9
:101F000007FC05D03EF4909581959F4F08957095FC
:101F100061957F4F0895EE0FFF1F0590F491E02D1E
:101F20000994AA1BBB1B51E107C0AA1FBB1FA61720
:101F3000B70710F0A61BB70B881F991F5A95A9F772
:101F400080959095BC01CD010895DC012D923D92C4
:101F50004D925D926D927D928D929D92AD92BD92C9
:101F6000CD92DD92ED92FD920D931D93CD93DD9375
:101F7000FF91EF918DB78D938EB78D938FB78D9322
:101F8000ED93FD93882799270994DC01CB018130DB
:101F90009105811D2D903D904D905D906D907D90AF
:101FA0008D909D90AD90BD90CD90DD90ED90FD9089
:101FB0000D911D91CD91DD91ED91FD910D90F894D4
:101FC000FEBF0FBEEDBFED91FD910994F894FFCFD8
:081FD000CE01CE013601EB0148
:00000001FF
