:100000000C9438000C9459050C94C5050C943106D9
:100010000C949D060C9409070C9455000C94440D07
:100020000C9455000C94F10C0C9475070C94E1079A
:100030000C944D080C94B9080C9425090C94910962
:100040000C94FD090C94690A0C94D50A0C94410B8C
:100050000C94AD0B0C94190C0C94850C120132010C
:1000600041016E019301B501DC011202D700960037
:1000700011241FBECFEFD4E0DEBFCDBF11E0A0E062
:10008000B1E0ECEBF2E202C005900D92A433B107AF
:10009000D9F724E0A4E3B1E001C01D92A139B20771
:1000A000E1F70E9472030C945C110C940000EF9233
:1000B000FF920F931F93CF93DF93E82FDB0177FD20
:1000C00074C0B595A7956170707877FD67C0660FAD
:1000D000771F660F771FAD0144515F4FEA0188819A
:1000E00020EF30E0062E02C0359527950A94E2F7FE
:1000F000822388837D01D1EFED0EF11CE701888119
:10010000822388832596888182238883A550BF4FC8
:100110008C9128232C930E2F10E0F801F097EA30F1
:10012000F105A8F5E25DFF4F0C94EB10DA01EC91BC
:1001300081E090E09C01062E01C0220F0A94EAF7AC
:100140003E2F320F3C93F7014081FB0132968C0128
:1001500002C0000F111FEA95E2F7322F302B340F47
:10016000D7013C933881AB014F5F5F4FFC0102C068
:10017000EE0FFF1F4A95E2F7AF016D5F7F4F01C0A1
:10018000880F6A95EAF7842B822B830F8883DF918F
:10019000CF911F910F91FF90EF90089561507109D9
:1001A0006E6F7F6F6F5F7F4F92CF11968ACFFA018C
:1001B000108181E090E09C01062E01C0220F0A947C
:1001C000EAF7312F320F3083F7013081AB014E5FF8
:1001D0005F4F8C0101C0000F4A95EAF7402F422B78
:1001E000340F30833881AB014F5F5F4FFC0102C099
:1001F000EE0FFF1F4A95E2F7AF01402B422B6D5FD8
:100200007F4F01C0880F6A95EAF7842B830F88839C
:100210008C91280F2C93DF91CF911F910F91FF901C
:10022000EF900895FA01108181E090E09C01062E84
:1002300001C0220F0A94EAF7312F320F3083F70101
:1002400030816E5F7F4F01C0880F6A95EAF7822B7D
:10025000932F980F90839881890F88838C91280F12
:100260002C9395CFD7012C9181E090E001C0880FAD
:100270006A95EAF7922F980F9C939881890F88834B
:1002800086CFFA01108181E090E09C01062E01C02A
:10029000220F0A94EAF7312F320F3083F7013081B1
:1002A000320F30833881AB014F5F5F4FFC01042E6A
:1002B00001C0EE0F0A94EAF74F5F5F4F8C0102C056
:1002C000000F111F4A95E2F7A8014E2B6D5F7F4F7B
:1002D00001C0880F6A95EAF7842B98CFFA01108144
:1002E00081E090E09C01062E01C0220F0A94EAF7FB
:1002F000312F320F3083F7013081320F3083388154
:10030000AB014F5F5F4F8C0102C0000F111F4A9578
:10031000E2F7A8016D5F7F4F01C0880F6A95EAF789
:10032000842B822B73CFD7014C9181E090E09C010C
:10033000062E01C0220F0A94EAF7FB0132968C01C7
:1003400002C0000F111FEA95E2F7322F302B340F55
:100350003C933881AB014F5F5F4FDC0102C0AA0FB5
:10036000BB1F4A95E2F7AD0108CFFA01108181E089
:1003700090E09C01062E01C0220F0A94EAF7312F6B
:10038000320F3083F7013081AB014E5F5F4F8C013C
:1003900002C0000F111F4A95E2F7A801430F4083E6
:1003A0003881AB014F5F5F4FFC0102C0EE0FFF1FB2
:1003B0004A95E2F7AF01AECFFA01208181E090E0EB
:1003C0008C01062E01C0000F0A94EAF7200F20834B
:1003D000F70140819B012E5F3F4FFC0102C0EE0FF1
:1003E000FF1F2A95E2F79F01342F320FF701308368
:1003F0003881AB014F5F5F4FFC0102C0EE0FFF1F62
:100400004A95E2F72E2B202B6D5F7F4F01C0880F9E
:100410006A95EAF7822B830F88838C91E02FE80F8F
:10042000EC93B5CEDA012C9181E090E001C0880F09
:100430006A95EAF7922F980F9C93F7019081980F95
:1004400090839881890F8883A2CEEF92FF920F93B9
:100450001F93CF93DF937B01FC01C481D581CC0F27
:10046000DD1FCC0FDD1FCB0164E670E00E94D710CA
:100470000AE010E0B8010E94D710862FBE01805D0F
:100480000E9457002196C701B8010E94D710BE01F3
:10049000805DDF91CF911F910F91FF90EF900C94B1
:1004A0005700E1E6F0E080E88083108290EC9093C2
:1004B000E40087E38093E50087E08093E6008FE027
:1004C0008093E70085B1806D85B98EB18C608EB95F
:1004D0008FE284B900008CE080936B0080ED809304
:1004E0006C009DBB84E08093ED0060E070E080E3F1
:1004F0000E94570061E070E080E30E94570064E0D2
:1005000070E080E30E94570065E070E080E30C94A7
:10051000570041E050E0FC0124813581232B11F08C
:1005200040E050E0FC015583448322E030E0241B8E
:10053000350B81E090E001C0880F2A95EAF780939F
:10054000ED000895CF92DF92EF92FF920F931F93E9
:10055000CF93DF93EC0140E050E061E572E08885E5
:1005600099850E94A40F0C811D81C12CD12C83E997
:10057000E82E83E0F82E20E030E0A90160E070E092
:10058000CB010E94340E0E811F8120E030E0A901D2
:1005900060E070E0CB010E94340EDF91CF911F919B
:1005A0000F91FF90EF90DF90CF900895CF92DF9260
:1005B000EF92FF920F931F93CF93DF93EC0183B1E0
:1005C000803C59F183B1803909F445C083B180354D
:1005D00049F0DF91CF911F910F91FF90EF90DF9045
:1005E000CF900895E885F985848195810296880FDA
:1005F000991FC80FD91F08811981CC24CA94DC2CFB
:1006000047EFE42E43E0F42E20E030E0A90160E063
:1006100070E0CB010E94340EDCCFE885F9850480C0
:10062000F581E02D3296EE0FFF1FEC0FFD1F0081CC
:100630001181C12CD12CBBE5EB2EB4E0FB2E20E0C8
:1006400030E0A90160E070E0CB010E94340E83B17C
:10065000803909F0BBCFE885F9850480F581E02D6C
:100660003296EE0FFF1FEC0FFD1F00811181CC248D
:10067000C394D12C77EFE72E73E0F72E20E030E023
:10068000A90160E070E0CB010E94340E9FCFCF92B1
:10069000DF92EF92FF920F931F93FC0122852111AD
:1006A0000AC021E0FC0122871F910F91FF90EF907B
:1006B000DF90CF9008956B0112860085118589E83F
:1006C000E82E82E0F82E20E030E0A90160E070E042
:1006D000CB010E94340E1F910F91FF90EF90DF909D
:1006E000CF90089542E066ED72E080E091E00E94D4
:1006F000A11041E067E473E080E091E00E94A11066
:1007000040E050E062EA72E080E091E00C94BB10BF
:10071000FB0180819181028002C0880F991F0A9499
:10072000E2F78CB90895AF92BF92CF92DF92EF9229
:10073000FF920F931F93CF93DF9300D000D0CDB7DC
:10074000DEB75C01FC01A285B3851097F1F1FC01D5
:10075000968581E08927868729E03DE30E94F11094
:10076000C12CD12C23E9E22E23E0F22E850120E0DA
:1007700030E0A9010E94340EF501868590E09A834D
:100780008983808591859C838B8304811581CE012B
:1007900001966C0188E8E82E83E0F82E20E030E036
:1007A000A90160E070E0CB010E94340E0F900F9021
:1007B0000F900F90DF91CF911F910F91FF90EF90CD
:1007C000DF90CF90BF90AF9008951686C12CD12CAA
:1007D00033E9E32E33E0F32E8C0120E030E0A90171
:1007E00069E07DE380E090E00E94340EC5CFAF92D7
:1007F000BF92CF92DF92EF92FF920F931F93CF930E
:10080000DF93EC015B01CA84DB84C60ED71ED7FCE4
:100810002AC084E6C816D1045CF183E690E09B8789
:100820008A8733E6C32ED12C0E811F8125E2E22E6A
:1008300022E0F22E20E030E0A90160E070E0CB0180
:100840000E94340E83B1803931F183B1803599F043
:10085000DF91CF911F910F91FF90EF90DF90CF909C
:10086000BF90AF9008951B861A86C12CD12CDCCF87
:10087000DB86CA86D9CF650187EFE82E83E0F82EA4
:100880008E0120E030E0A9016FE472E180E090E0A9
:100890000E94340EDDCF650197EFE92E93E0F92E2B
:1008A0008E0120E030E0A9016FE472E180E090E089
:1008B0000E94340ECACFCF92DF92EF92FF920F9335
:1008C0001F93FC01C284D384C114D104B9F0D5862E
:1008D000C4860681178185E2E82E82E0F82E20E0AA
:1008E00030E0A90160E070E0CB010E94340E1F915E
:1008F0000F91FF90EF90DF90CF900895C484D5843E
:10090000D386C286E6CFCF93DF9300D000D0CDB799
:10091000DEB781E392E021E133E0FC01709791833F
:100920008083409682179307C1F7109202031092BA
:100930000103ECE6F1E089E891E09183808386EAA7
:1009400091E0968F858FA3ECB1E0B3AFA2AF1D927B
:100950001C92FA83E983EDE6F3E0FC83EB83898163
:100960009A8106960E941B118B819C81E981FA81F4
:10097000978B868B918F808F86E290E1948F838F07
:10098000158214827D96FA83E983EB81FC81E05A1B
:10099000FF4FFC83EB8389819A81805E9140F9F659
:1009A000E4E0F2E011821082158214821382128236
:1009B000E1E6F0E080E880831082109285001092DA
:1009C000840084E08093810081E080936F000F9029
:1009D0000F900F900F90DF91CF910895CF93DF93F9
:1009E00000D0CDB7DEB79A83898380912C01909196
:1009F0002D0106960E941B11892B29F00F900F9054
:100A0000DF91CF91089589819A8190932D018093F0
:100A10002C0161E070E006960E943B110F931F933A
:100A2000CF93DF93E0914601F09147013097F1F0C9
:100A300080913001909131010097C1F0C0912E0159
:100A4000D0912F01AA81BB811097A9F046815781CF
:100A50006085718516960D911D912D913C91199788
:100A6000401B510B620B730B77FD05C0DF91CF91DB
:100A70001F910F910895FC01208131813093310144
:100A800020933001D183C08390932F0180932E0156
:100A9000DF91CF911F910F910C94EE048FEF809313
:100AA000EC008093ED008093EE0081E083BF889599
:100AB000FDCF1F920F920FB60F9211242F933F93E9
:100AC0004F935F936F937F938F939F93AF93BF9356
:100AD000EF93FF9320913E0130913F0140918400BC
:100AE00050918500C901032E000CAA0BBB0BDC0141
:100AF0009927882760E070E0842B952BA62BB72BD5
:100B00008093400190934101A0934201B09343012F
:100B1000B09B1BC04091840050918500C901019693
:100B2000092E000CAA0BBB0BDC019927882760E07B
:100B300070E0842B952BA62BB72B809340019093CC
:100B40004101A0934201B0934301E091E001F09193
:100B5000E101309739F060E070E0809148019091B8
:100B6000490109950E940E05FF91EF91BF91AF9148
:100B70009F918F917F916F915F914F913F912F91B5
:100B80000F900FBE0F901F9018951F920F920FB6E7
:100B90000F9211242F933F934F935F936F937F9303
:100BA0008F939F93AF93BF93EF93FF9320913E0159
:100BB00030913F014091840050918500C901032E7E
:100BC000000CAA0BBB0BDC019927882760E070E0C2
:100BD000842B952BA62BB72B80934001909341013A
:100BE000A0934201B0934301B09B1BC0409184008D
:100BF00050918500C9010196092E000CAA0BBB0B70
:100C0000DC019927882760E070E0842B952BA62BC8
:100C1000B72B8093400190934101A0934201B09380
:100C20004301E091E201F091E301309739F061E096
:100C300070E080914A0190914B0109950E940E0548
:100C4000FF91EF91BF91AF919F918F917F916F91A4
:100C50005F914F913F912F910F900FBE0F901F907A
:100C600018951F920F920FB60F9211242F933F9356
:100C70004F935F936F937F938F939F93AF93BF93A4
:100C8000EF93FF9320913E0130913F01409184000A
:100C900050918500C901032E000CAA0BBB0BDC018F
:100CA0009927882760E070E0842B952BA62BB72B23
:100CB0008093400190934101A0934201B09343017E
:100CC000B09B1BC04091840050918500C9010196E2
:100CD000092E000CAA0BBB0BDC019927882760E0CA
:100CE00070E0842B952BA62BB72B8093400190931B
:100CF0004101A0934201B0934301E091E401F091DE
:100D0000E501309739F062E070E080914C019091FC
:100D10004D0109950E940E05FF91EF91BF91AF9192
:100D20009F918F917F916F915F914F913F912F9103
:100D30000F900FBE0F901F9018951F920F920FB635
:100D40000F9211242F933F934F935F936F937F9351
:100D50008F939F93AF93BF93EF93FF9320913E01A7
:100D600030913F014091840050918500C901032ECC
:100D7000000CAA0BBB0BDC019927882760E070E010
:100D8000842B952BA62BB72B809340019093410188
:100D9000A0934201B0934301B09B1BC040918400DB
:100DA00050918500C9010196092E000CAA0BBB0BBE
:100DB000DC019927882760E070E0842B952BA62B17
:100DC000B72B8093400190934101A0934201B093CF
:100DD0004301E091E601F091E701309739F063E0DB
:100DE00070E080914E0190914F0109950E940E058F
:100DF000FF91EF91BF91AF919F918F917F916F91F3
:100E00005F914F913F912F910F900FBE0F901F90C8
:100E100018951F920F920FB60F9211242F933F93A4
:100E20004F935F936F937F938F939F93AF93BF93F2
:100E3000EF93FF9320913E0130913F014091840058
:100E400050918500C901032E000CAA0BBB0BDC01DD
:100E50009927882760E070E0842B952BA62BB72B71
:100E60008093400190934101A0934201B0934301CC
:100E7000B09B1BC04091840050918500C901019630
:100E8000092E000CAA0BBB0BDC019927882760E018
:100E900070E0842B952BA62BB72B80934001909369
:100EA0004101A0934201B0934301E091E801F09128
:100EB000E901309739F064E070E080915001909141
:100EC000510109950E940E05FF91EF91BF91AF91DD
:100ED0009F918F917F916F915F914F913F912F9152
:100EE0000F900FBE0F901F9018951F920F920FB684
:100EF0000F9211242F933F934F935F936F937F93A0
:100F00008F939F93AF93BF93EF93FF9320913E01F5
:100F100030913F014091840050918500C901032E1A
:100F2000000CAA0BBB0BDC019927882760E070E05E
:100F3000842B952BA62BB72B8093400190934101D6
:100F4000A0934201B0934301B09B1BC04091840029
:100F500050918500C9010196092E000CAA0BBB0B0C
:100F6000DC019927882760E070E0842B952BA62B65
:100F7000B72B8093400190934101A0934201B0931D
:100F80004301E091EA01F091EB01309739F065E01F
:100F900070E0809152019091530109950E940E05D5
:100FA000FF91EF91BF91AF919F918F917F916F9141
:100FB0005F914F913F912F910F900FBE0F901F9017
:100FC00018951F920F920FB60F9211242F933F93F3
:100FD0004F935F936F937F938F939F93AF93BF9341
:100FE000EF93FF9320913E0130913F0140918400A7
:100FF00050918500C901032E000CAA0BBB0BDC012C
:101000009927882760E070E0842B952BA62BB72BBF
:101010008093400190934101A0934201B09343011A
:10102000B09B1BC04091840050918500C90101967E
:10103000092E000CAA0BBB0BDC019927882760E066
:1010400070E0842B952BA62BB72B809340019093B7
:101050004101A0934201B0934301E091EC01F09172
:10106000ED01309739F066E070E080915401909185
:10107000550109950E940E05FF91EF91BF91AF9127
:101080009F918F917F916F915F914F913F912F91A0
:101090000F900FBE0F901F9018951F920F920FB6D2
:1010A0000F9211242F933F934F935F936F937F93EE
:1010B0008F939F93AF93BF93EF93FF9320913E0144
:1010C00030913F014091840050918500C901032E69
:1010D000000CAA0BBB0BDC019927882760E070E0AD
:1010E000842B952BA62BB72B809340019093410125
:1010F000A0934201B0934301B09B1BC04091840078
:1011000050918500C9010196092E000CAA0BBB0B5A
:10111000DC019927882760E070E0842B952BA62BB3
:10112000B72B8093400190934101A0934201B0936B
:101130004301E091EE01F091EF01309739F067E063
:1011400070E0809156019091570109950E940E051B
:10115000FF91EF91BF91AF919F918F917F916F918F
:101160005F914F913F912F910F900FBE0F901F9065
:1011700018951F920F920FB60F9211242F933F9341
:101180004F935F936F937F938F939F93AF93BF938F
:10119000EF93FF9320913E0130913F0140918400F5
:1011A00050918500C901032E000CAA0BBB0BDC017A
:1011B0009927882760E070E0842B952BA62BB72B0E
:1011C0008093400190934101A0934201B093430169
:1011D000B09B1BC04091840050918500C9010196CD
:1011E000092E000CAA0BBB0BDC019927882760E0B5
:1011F00070E0842B952BA62BB72B80934001909306
:101200004101A0934201B0934301E091F001F091BC
:10121000F101309739F068E070E0809158019091C9
:10122000590109950E940E05FF91EF91BF91AF9171
:101230009F918F917F916F915F914F913F912F91EE
:101240000F900FBE0F901F9018951F920F920FB620
:101250000F9211242F933F934F935F936F937F933C
:101260008F939F93AF93BF93EF93FF9320913E0192
:1012700030913F014091840050918500C901032EB7
:10128000000CAA0BBB0BDC019927882760E070E0FB
:10129000842B952BA62BB72B809340019093410173
:1012A000A0934201B0934301B09B1BC040918400C6
:1012B00050918500C9010196092E000CAA0BBB0BA9
:1012C000DC019927882760E070E0842B952BA62B02
:1012D000B72B8093400190934101A0934201B093BA
:1012E0004301E091F201F091F301309739F069E0A8
:1012F00070E080915A0190915B0109950E940E0562
:10130000FF91EF91BF91AF919F918F917F916F91DD
:101310005F914F913F912F910F900FBE0F901F90B3
:1013200018951F920F920FB60F9211242F933F938F
:101330004F935F936F937F938F939F93AF93BF93DD
:10134000EF93FF9320913E0130913F014091840043
:1013500050918500C901032E000CAA0BBB0BDC01C8
:101360009927882760E070E0842B952BA62BB72B5C
:101370008093400190934101A0934201B0934301B7
:10138000B09B1BC04091840050918500C90101961B
:10139000092E000CAA0BBB0BDC019927882760E003
:1013A00070E0842B952BA62BB72B80934001909354
:1013B0004101A0934201B0934301E091F401F09107
:1013C000F501309739F06AE070E080915C0190910E
:1013D0005D0109950E940E05FF91EF91BF91AF91BC
:1013E0009F918F917F916F915F914F913F912F913D
:1013F0000F900FBE0F901F9018951F920F920FB66F
:101400000F9211242F933F934F935F936F937F938A
:101410008F939F93AF93BF93EF93FF9320913E01E0
:1014200030913F014091840050918500C901032E05
:10143000000CAA0BBB0BDC019927882760E070E049
:10144000842B952BA62BB72B8093400190934101C1
:10145000A0934201B0934301B09B1BC04091840014
:1014600050918500C9010196092E000CAA0BBB0BF7
:10147000DC019927882760E070E0842B952BA62B50
:10148000B72B8093400190934101A0934201B09308
:101490004301E091F601F091F701309739F06BE0EC
:1014A00070E080915E0190915F0109950E940E05A8
:1014B000FF91EF91BF91AF919F918F917F916F912C
:1014C0005F914F913F912F910F900FBE0F901F9002
:1014D00018951F920F920FB60F9211242F933F93DE
:1014E0004F935F936F937F938F939F93AF93BF932C
:1014F000EF93FF9320913E0130913F014091840092
:1015000050918500C901032E000CAA0BBB0BDC0116
:101510009927882760E070E0842B952BA62BB72BAA
:101520008093400190934101A0934201B093430105
:10153000B09B1BC04091840050918500C901019669
:10154000092E000CAA0BBB0BDC019927882760E051
:1015500070E0842B952BA62BB72B809340019093A2
:101560004101A0934201B0934301E091F801F09151
:10157000F901309739F06CE070E080916001909152
:10158000610109950E940E05FF91EF91BF91AF9106
:101590009F918F917F916F915F914F913F912F918B
:1015A0000F900FBE0F901F9018951F920F920FB6BD
:1015B0000F9211242F933F934F935F936F937F93D9
:1015C0008F939F93AF93BF93EF93FF9320913E012F
:1015D00030913F014091840050918500C901032E54
:1015E000000CAA0BBB0BDC019927882760E070E098
:1015F000842B952BA62BB72B809340019093410110
:10160000A0934201B0934301B09B1BC04091840062
:1016100050918500C9010196092E000CAA0BBB0B45
:10162000DC019927882760E070E0842B952BA62B9E
:10163000B72B8093400190934101A0934201B09356
:101640004301E091FA01F091FB01309739F06DE030
:1016500070E0809162019091630109950E940E05EE
:10166000FF91EF91BF91AF919F918F917F916F917A
:101670005F914F913F912F910F900FBE0F901F9050
:1016800018951F920F920FB60F9211242F933F932C
:101690004F935F936F937F938F939F93AF93BF937A
:1016A000EF93FF9320913E0130913F0140918400E0
:1016B00050918500C901032E000CAA0BBB0BDC0165
:1016C0009927882760E070E0842B952BA62BB72BF9
:1016D0008093400190934101A0934201B093430154
:1016E000B09B1BC04091840050918500C9010196B8
:1016F000092E000CAA0BBB0BDC019927882760E0A0
:1017000070E0842B952BA62BB72B809340019093F0
:101710004101A0934201B0934301E091FC01F0919B
:10172000FD01309739F06EE070E080916401909196
:10173000650109950E940E05FF91EF91BF91AF9150
:101740009F918F917F916F915F914F913F912F91D9
:101750000F900FBE0F901F9018951F920F920FB60B
:101760000F9211242F933F934F935F936F937F9327
:101770008F939F93AF93BF93EF93FF9320913E017D
:1017800030913F014091840050918500C901032EA2
:10179000000CAA0BBB0BDC019927882760E070E0E6
:1017A000842B952BA62BB72B80934001909341015E
:1017B000A0934201B0934301B09B1BC040918400B1
:1017C00050918500C9010196092E000CAA0BBB0B94
:1017D000DC019927882760E070E0842B952BA62BED
:1017E000B72B8093400190934101A0934201B093A5
:1017F0004301E091FE01F091FF01309739F06FE075
:1018000070E0809166019091670109950E940E0534
:10181000FF91EF91BF91AF919F918F917F916F91C8
:101820005F914F913F912F910F900FBE0F901F909E
:1018300018951F920F920FB60F9211242F933F937A
:101840004F935F936F937F938F939F93AF93BF93C8
:10185000EF93FF9320913E0130913F01409184002E
:1018600050918500C901032E000CAA0BBB0BDC01B3
:101870009927882760E070E0842B952BA62BB72B47
:101880008093400190934101A0934201B0934301A2
:10189000B09B1BC04091840050918500C901019606
:1018A000092E000CAA0BBB0BDC019927882760E0EE
:1018B00070E0842B952BA62BB72B8093400190933F
:1018C0004101A0934201B0934301E0910002F091E5
:1018D0000102309739F060E170E0809168019091E9
:1018E000690109950E940E05FF91EF91BF91AF919B
:1018F0009F918F917F916F915F914F913F912F9128
:101900000F900FBE0F901F9018951F920F920FB659
:101910000F9211242F933F934F935F936F937F9375
:101920008F939F93AF93BF93EF93FF9320913E01CB
:1019300030913F014091840050918500C901032EF0
:10194000000CAA0BBB0BDC019927882760E070E034
:10195000842B952BA62BB72B8093400190934101AC
:10196000A0934201B0934301B09B1BC040918400FF
:1019700050918500C9010196092E000CAA0BBB0BE2
:10198000DC019927882760E070E0842B952BA62B3B
:10199000B72B8093400190934101A0934201B093F3
:1019A0004301E0910202F0910302309739F061E1C6
:1019B00070E080916A0190916B0109950E940E057B
:1019C000FF91EF91BF91AF919F918F917F916F9117
:1019D0005F914F913F912F910F900FBE0F901F90ED
:1019E00018951F920F920FB60F9211242F933F93C9
:1019F0004F935F936F937F938F939F93EF93FF9397
:101A000080913E0190913F01019690933F01809318
:101A10003E01E0914401F0914501309739F0428157
:101A200053816481758186179707A1F080916F00BB
:101A30008D7F80936F00FF91EF919F918F917F91A8
:101A40006F915F914F913F912F910F900FBE0F902B
:101A50001F901895CA012091840030918500421B87
:101A6000530B4130510551F09093890080938800C9
:101A700080916F00826080936F00DDCF8091840041
:101A8000909185000196F0CF1F920F920FB60F92A2
:101A900011248F929F92AF92BF92CF92DF92EF92DA
:101AA000FF920F931F932F933F934F935F936F93E7
:101AB0007F938F939F93AF93BF93CF93DF93EF93D6
:101AC000FF93E0903E01F0903F018091840090915F
:101AD0008500B09998C047010F2C000CAA08BB08DC
:101AE000540199248824A0E0B0E0882A992AAA2ADF
:101AF000BB2AC0914401D09145018091460190914B
:101B00004701209709F43FC04A815B816C817D8148
:101B10008A019B01081919092A093B0910161106A7
:101B2000120613060CF440C0D880C9800097B9F1A2
:101B30000E811F8128853985FC014681578160858A
:101B4000718504171507260737074CF1DC010AC019
:101B50004681578160857185041715072607370769
:101B6000DCF0DF01ED91FC911197309789F7198234
:101B70001882CD93DC93382F292FCD2DDC2D832F88
:101B8000922F209709F610924501109244019093EC
:101B900047018093460113C0F983E883EACF998314
:101BA00088833C2F2D2FE9CFD0934501C09344016A
:101BB0009093470180934601E616F706D9F180918C
:101BC0006F008D7F80936F000E940E05FF91EF9153
:101BD000DF91CF91BF91AF919F918F917F916F9145
:101BE0005F914F913F912F911F910F91FF90EF9037
:101BF000DF90CF90BF90AF909F908F900F900FBECF
:101C00000F901F9018952091840030918500470116
:101C10008FEF881A980A092C000CAA08BB08D40177
:101C2000992788274901A12CB12C882A992AAA2A08
:101C3000BB2A5FCFCA012091840030918500421BEE
:101C4000530B4130510551F09093890080938800E7
:101C500080916F00826080936F00B6CF8091840086
:101C6000909185000196F0CF3F924F925F926F92D4
:101C70007F928F929F92AF92BF92CF92DF92EF921C
:101C8000FF920F931F93CF93DF93EFB7E0783E2E31
:101C9000F894C0913201D0913301209709F452C1D8
:101CA000E881F981F0933301E09332011B870A87C1
:101CB000FD86EC86DF86CE86332009F46FC0E09186
:101CC0002C01F0912D010280F381E02DC280D380A0
:101CD000E480F580C60ED71EE81EF91ECA82DB829C
:101CE000EC82FD8212161306140615060CF0F8C0DD
:101CF000DA01C9018C019D010C0D1D1D2E1D3F1D1A
:101D00000E831F832887398780913E0190913F0180
:101D10006091840070918500B09949C02C01092E12
:101D2000000C660877085201992488242B01612C45
:101D3000712C482859286A287B28B701A601441924
:101D400055096609770914161506160617060CF0CC
:101D500068C0A0914401B0914501109709F4DCC01E
:101D600012960D911D912D913C911597C016D1069B
:101D7000E206F3065CF4D0C0428153816481758130
:101D8000C416D506E606F7064CF1DF01ED91FC918D
:101D90001197309789F71982188222C0C0904001AC
:101DA000D0904101E0904201F090430193CFE09147
:101DB0008400F09185002C014FEF441A540A052C41
:101DC000000C66087708B201552744272F01612CC3
:101DD000712C442A552A662A772AAFCFF983E883E3
:101DE000CD93DC938217930709F47FC080916F0035
:101DF0008D7F80936F00332009F07894CE01DF91BE
:101E0000CF911F910F91FF90EF90DF90CF90BF90F7
:101E1000AF909F908F907F906F905F904F903F908A
:101E20000895A0914601B0914701109709F483C02D
:101E30001696CD90DD90ED90FC9019970C151D0530
:101E40002E053F0564F477C0C680D780E084F18416
:101E50000C151D052E053F050CF45BC0DF01ED914F
:101E6000FC911197309781F719821882CD93DC93FA
:101E7000332021F28091300190913101009709F4D3
:101E8000BCCFE0912E01F0912F01209146013091BD
:101E9000470102811381D90116964D915D916D9193
:101EA0007C911997D80116960D911D912D913C9119
:101EB0001997401B510B620B730B77FF9ECFDC0110
:101EC0002D913C9111973093310120933001ED9386
:101ED000FC9390932F0180932E010E94EE048DCFEE
:101EE0008FEF9FEFAFEFBFE705CFC80140918400B0
:101EF00050918500041B150B01301105B1F0909332
:101F000089008093880080916F00826080936F00C9
:101F100072CFF983E883AACFB983A883D093450110
:101F2000C0934401970186015DCF80918400909118
:101F300085000196E4CFB983A883D0934701C0936D
:101F4000460196CF0E944E05CF92DF92EF92FF920C
:101F50000F931F93CF93DF93EC017B016A011FB7AF
:101F60001078F894A881B981109719F462C0A08103
:101F7000B1811496ED91FC9115973097C1F720919E
:101F80002C0130912D012A173B0709F44CC0112375
:101F9000A1F18A819B81009719F0FC0115821482BE
:101FA0003B832A83F901D583C483CD010E94EE04CB
:101FB000E0912C01F0912D0182819381892B09F40C
:101FC00041C0F983E8838A819B81019709F0789465
:101FD000B601CE01F7010995F82E092F8FB7F894B5
:101FE000198218828A819B8182309105A0F4112385
:101FF00079F078948F2D902F02C08FEF9FEFDF91B3
:10200000CF911F910F91FF90EF90DF90CF900895A7
:102010008F2D902FF4CF1B821A82FC01158214821F
:102020000E94EE04E4CF112341F378948FEF9FEFE9
:10203000E6CF80912C0190912D0199838883112303
:1020400039F2C1CF789480E090E0D9CFC0914601B9
:10205000D0914701E0912C01F0912D01209709F4D6
:102060006EC0888199819093470180934601D38304
:10207000C28378944E855F856C857D858A859B8536
:102080000E94A40F8FB7F894809132019091330190
:1020900099838883D0933301C0933201E0902E015D
:1020A000F0902F01F701A081B18112968D919C9142
:1020B0001397C0914601D09147012097A9F000974E
:1020C00049F24E815F8168857985FC01068117811F
:1020D00020853185401B510B620B730B14161506BE
:1020E000160617060CF0B6CFB0932F01A0932E0161
:1020F0008091300190913101F70191838083F092BA
:102100003101E09230011496ED91FC9115973097D2
:1021100041F0A081B1811496ED91FC911597309713
:10212000C1F7CD010E94EE04C0914601D091470154
:10213000E0912C01F0912D01209709F092CF0E949F
:102140004E054231B8F42FB7F89450E0440F551FB4
:10215000FA01E85BFE4F91838083FA01E052FE4F63
:102160007183608341E050E0FC015383428327FF89
:1021700001C0789408958C017B016A018FB7F894AF
:102180000E9483047894E114F10441F020E030E0EF
:10219000A90160E070E0CB010E94340E8FB7F89483
:1021A0000E940E05789481E083BF8895FDCF97FB50
:1021B000072E16F4009407D077FD09D00E94F8107E
:1021C00007FC05D03EF4909581959F4F089570953A
:1021D00061957F4F0895EE0FFF1F0590F491E02D5C
:1021E00009940E940C11B7FF0895821B930B089568
:1021F000AA1BBB1B51E107C0AA1FBB1FA617B7072D
:1022000010F0A61BB70B881F991F5A95A9F7809548
:102210009095BC01CD010895A29FB001B39FC0016C
:10222000A39F700D811D1124911DB29F700D811D02
:102230001124911D0895DC012D923D924D925D92E5
:102240006D927D928D929D92AD92BD92CD92DD92D6
:10225000ED92FD920D931D93CD93DD93FF91EF9140
:102260008DB78D938EB78D938FB78D93ED93FD932F
:10227000882799270994DC01CB0181309105811DC4
:102280002D903D904D905D906D907D908D909D90A6
:10229000AD90BD90CD90DD90ED90FD900D911D9194
:1022A000CD91DD91ED91FD910D90F894FEBF0FBEA3
:0C22B000EDBFED91FD910994F894FFCF73
:1022BC00000000001C010C013801010000000000AE
:1022CC00340138010600000000000000000000008E
:1022DC003401380104000000000000000402040274
:0422EC006C0121025E
:00000001FF
